:020000040800F2
:100000000000102499F50008E5F30008E7F3000864
:10001000E9F30008EBF30008EDF30008000000002E
:1000200000000000000000000000000071F7000860
:10003000EFF300080000000011F80008EBF50008DD
:10004000E9F50008E9F50008E9F50008E9F5000818
:10005000E9F50008E9F50008E9F50008E9F5000808
:10006000E9F50008E9F50008E9F50008F1F30008F2
:1000700001F40008E9F50008E9F50008E9F50008D1
:10008000E9F50008E9F50008E9F5000811F40008B1
:10009000E9F50008E9F50008E9F50008E9F50008C8
:1000A000E9F50008E9F50008E9F50008E9F50008B8
:1000B000E9F50008E9F50008E9F50008E9F50008A8
:1000C000E9F50008E9F50008E9F50008E9F5000898
:1000D000E9F50008E9F50008E9F50008E9F5000888
:1000E000E1E40008E9F50008E9F50008E9F5000891
:1000F000E9F50008E9F50008E9F50008E9F5000868
:10010000E9F50008E9F50008E9F50008E9F5000857
:10011000E9F50008E9F5000821F40008E9F5000810
:10012000E9F50008E9F50008E9F50008E9F5000837
:10013000E9F500080000000000000000E9F50008F3
:10014000E9F50008E9F50008E9F50008E9F5000817
:10015000E9F50008E9F50008E9F50008E9F5000807
:10016000E9F50008E9F50008E9F50008E9F50008F7
:10017000E9F50008E9F50008E9F5000800000000CD
:10018000E9F50008E9F50008E9F50008E9F50008D7
:10019000E9F50008E9F50008E9F50008E9F50008C7
:1001A000E9F50008E9F50008E9F50008E9F50008B7
:1001B000E9F50008E9F50008E9F50008E9F50008A7
:1001C000E9F50008E9F50008000000000000000063
:1001D0000000000000000000E9F500080000000039
:1001E000000000000000000000000000000000000F
:1001F0000000000000000000E9F50008E9F5000833
:10020000E9F50008E9F5000800000000E9F500083C
:10021000E9F50008E9F50008E9F50008E9F5000846
:10022000E9F50008E9F50008E9F50008000000001C
:10023000E9F50008E9F5000800000000E9F500080C
:10024000E9F50008E9F50008E9F50008E9F5000816
:10025000E9F50008E9F50008E9F50008E9F5000806
:10026000E9F50008E9F50008E9F50008E9F50008F6
:10027000E9F50008E9F50008E9F5000800000000CC
:10028000E9F50008E9F5000800000000E9F50008BC
:1002900000000000E9F50008E9F500080000000092
:0C02A00000000000E9F50008E9F5000886
:1002C00081F0004102E000BF83F0004330B54FEA07
:1002D00041044FEA430594EA050F08BF90EA020F74
:1002E0001FBF54EA000C55EA020C7FEA645C7FEA07
:1002F000655C00F0E2804FEA5454D4EB5555B8BF2A
:100300006D420CDD2C4480EA020281EA030382EA9A
:10031000000083EA010180EA020281EA0303362D2C
:1003200088BF30BD11F0004F4FEA01314FF4801CFF
:100330004CEA113102D0404261EB410113F0004F11
:100340004FEA03334CEA133302D0524263EB4303C8
:1003500094EA050F00F0A780A4F10104D5F1200E66
:100360000DDB02FA0EFC22FA05F2801841F10001C1
:1003700003FA0EF2801843FA05F359410EE0A5F195
:1003800020050EF1200E012A03FA0EFC28BF4CF0C6
:10039000020C43FA05F3C01851EBE37101F000457C
:1003A00007D54FF0000EDCF1000C7EEB00006EEB89
:1003B0000101B1F5801F1BD3B1F5001F0CD3490813
:1003C0005FEA30004FEA3C0C04F101044FEA44526A
:1003D00012F5800F80F09A80BCF1004F08BF5FEAF1
:1003E000500C50F1000041EB045141EA050130BDD1
:1003F0005FEA4C0C404141EB0101013C28BFB1F5E3
:10040000801FE9D291F0000F04BF01460020B1FA2D
:1004100081F308BF2033A3F10B03B3F120020CDA00
:100420000C3208DD02F1140CC2F10C0201FA0CF0DE
:1004300021FA02F10CE002F11402D8BFC2F1200C43
:1004400001FA02F120FA0CFCDCBF41EA0C019040F9
:10045000E41AA2BF01EB0451294330BD6FEA040442
:100460001F3C1CDA0C340EDC04F11404C4F120022D
:1004700020FA04F001FA02F340EA030021FA04F33F
:1004800045EA030130BDC4F10C04C4F1200220FA96
:1004900002F001FA04F340EA0300294630BD21FAD4
:1004A00004F0294630BD94F0000F83F4801306BF9A
:1004B00081F480110134013D4EE77FEA645C18BF8E
:1004C0007FEA655C29D094EA050F08BF90EA020F25
:1004D00005D054EA000C04BF1946104630BD91EA1D
:1004E000030F1EBF0021002030BD5FEA545C05D120
:1004F0004000494128BF41F0004130BD14F580045F
:100500003CBF01F5801130BD01F0004545F0FE41D2
:1005100041F470014FF0000030BD7FEA645C1ABF07
:10052000194610467FEA655C1CBF0B46024650EA3E
:10053000013406BF52EA033591EA030F41F400216A
:1005400030BD00BF90F0000F04BF0021704730B5F0
:100550004FF4806404F132044FF000054FF00001C5
:1005600050E700BF90F0000F04BF0021704730B586
:100570004FF4806404F1320410F0004548BF40425B
:100580004FF000013EE700BF42004FEAE2014FEAB0
:1005900031014FEA02701FBF12F07F4393F07F4F8B
:1005A00081F06051704732F07F4208BF704793F08E
:1005B0007F4F04BF41F40021704730B54FF46074A1
:1005C00001F0004521F000411CE700BF50EA0102A4
:1005D00008BF704730B54FF000050AE050EA01024D
:1005E00008BF704730B511F0004502D5404261EBBD
:1005F00041014FF4806404F132045FEA915C3FF4FE
:10060000D8AE4FF003025FEADC0C18BF03325FEA9A
:10061000DC0C18BF033202EBDC02C2F1200300FA4B
:1006200003FC20FA02F001FA03FE40EA0E0021FA70
:1006300002F11444BDE600BF70B54FF0FF0C4CF45E
:10064000E06C1CEA11541DBF1CEA135594EA0C0F10
:1006500095EA0C0F00F0DEF82C4481EA030621EA4B
:100660004C5123EA4C5350EA013518BF52EA033586
:1006700041F4801143F4801338D0A0FB02CE4FF038
:100680000005E1FB02E506F00042E0FB03E54FF068
:100690000006E1FB03569CF0000F18BF4EF0010E60
:1006A000A4F1FF04B6F5007F64F5407404D25FEA5C
:1006B0004E0E6D4146EB060642EAC62141EA55510F
:1006C0004FEAC52040EA5E504FEACE2EB4F1FD0C51
:1006D00088BFBCF5E06F1ED8BEF1004F08BF5FEACF
:1006E000500E50F1000041EB045170BD06F0004681
:1006F00046EA010140EA020081EA0301B4EB5C042E
:10070000C2BFD4EB0C0541EA045170BD41F4801125
:100710004FF0000E013C00F3AB8014F1360FDEBF4A
:10072000002001F0004170BDC4F10004203C35DA26
:100730000C341BDC04F11404C4F1200500FA05F3A9
:1007400020FA04F001FA05F240EA020001F000424A
:1007500021F0004110EBD37021FA04F642EB0601C0
:100760005EEA430E08BF20EAD37070BDC4F10C04EA
:10077000C4F1200500FA04F320FA05F001FA04F2AE
:1007800040EA020001F0004110EBD37041F100019A
:100790005EEA430E08BF20EAD37070BDC4F12005A5
:1007A00000FA05F24EEA020E20FA04F301FA05F20D
:1007B00043EA020321FA04F001F0004121FA04F2B5
:1007C00020EA020000EBD3705EEA430E08BF20EA85
:1007D000D37070BD94F0000F0FD101F000464000BF
:1007E00041EB010111F4801F08BF013CF7D041EA41
:1007F000060195F0000F18BF704703F00046520045
:1008000043EB030313F4801F08BF013DF7D043EA15
:100810000603704794EA0C0F0CEA135518BF95EACB
:100820000C0F0CD050EA410618BF52EA4306D1D152
:1008300081EA030101F000414FF0000070BD50EA71
:10084000410606BF1046194652EA430619D094EAFB
:100850000C0F02D150EA013613D195EA0C0F05D1E5
:1008600052EA03361CBF104619460AD181EA030139
:1008700001F0004141F0FE4141F470014FF00000F1
:1008800070BD41F0FE4141F4780170BD70B54FF08C
:10089000FF0C4CF4E06C1CEA11541DBF1CEA13550C
:1008A00094EA0C0F95EA0C0F00F0A7F8A4EB0504EE
:1008B00081EA030E52EA03354FEA013100F08880E5
:1008C0004FEA03334FF0805545EA131343EA1263AE
:1008D0004FEA022245EA111545EA10654FEA002663
:1008E0000EF000419D4208BF964244F1FD0404F51C
:1008F000407402D25B084FEA3202B61A65EB030578
:100900005B084FEA32024FF480104FF4002CB6EB34
:10091000020E75EB030E22BFB61A754640EA0C00B4
:100920005B084FEA3202B6EB020E75EB030E22BFF4
:10093000B61A754640EA5C005B084FEA3202B6EB35
:10094000020E75EB030E22BFB61A754640EA9C00F4
:100950005B084FEA3202B6EB020E75EB030E22BFC4
:10096000B61A754640EADC0055EA060E18D04FEA82
:10097000051545EA16754FEA06164FEAC30343EA22
:1009800052734FEAC2025FEA1C1CC0D111F4801FEF
:100990000BD141EA00014FF000004FF0004CB6E7E8
:1009A00011F4801F04BF01430020B4F1FD0C88BF87
:1009B000BCF5E06F3FF6AFAEB5EB030C04BFB6EB92
:1009C000020C5FEA500C50F1000041EB045170BD85
:1009D0000EF0004E4EEA113114EB5C04C2BFD4EBB2
:1009E0000C0541EA045170BD41F480114FF0000E36
:1009F000013C90E645EA060E8DE60CEA135594EAB2
:100A00000C0F08BF95EA0C0F3FF43BAF94EA0C0FB4
:100A10000AD150EA01347FF434AF95EA0C0F7FF429
:100A200025AF104619462CE795EA0C0F06D152EA7D
:100A300003353FF4FDAE1046194622E750EA410661
:100A400018BF52EA43067FF4C5AE50EA41047FF472
:100A50000DAF52EA43057FF4EBAE12E74FF0FF3CD7
:100A600006E000BF4FF0010C02E000BF4FF0010CA8
:100A70004DF804CD4FEA410C7FEA6C5C4FEA430C21
:100A800018BF7FEA6C5C1BD001B050EA410C0CBF70
:100A900052EA430C91EA030F02BF90EA020F0020D2
:100AA000704710F1000F91EA030F58BF994208BF39
:100AB00090422CBFD8176FEAE37040F001007047F6
:100AC0004FEA410C7FEA6C5C02D150EA013C07D14D
:100AD0004FEA430C7FEA6C5CD6D152EA033CD3D098
:100AE0005DF8040B704700BF8446104662468C4692
:100AF0001946634600E000BF01B5FFF7B7FF0028C5
:100B000048BF10F1000F01BD4DF808EDFFF7F4FFED
:100B10000CBF012000205DF808FB00BF4DF808ED78
:100B2000FFF7EAFF34BF012000205DF808FB00BF9B
:100B30004DF808EDFFF7E0FF94BF012000205DF8BD
:100B400008FB00BF4DF808EDFFF7CEFF94BF012072
:100B500000205DF808FB00BF4DF808EDFFF7C4FF6B
:100B600034BF012000205DF808FB00BF4FEA410CB4
:100B70007FEA6C5C02D150EA013C0AD14FEA430C97
:100B80007FEA6C5C02D152EA033C02D14FF00000D4
:100B900070474FF0010070474FEA410212F5001212
:100BA00015D211D56FF47873B3EB625212D94FEAB4
:100BB000C12343F0004343EA505311F0004F23FA9E
:100BC00002F018BF404270474FF00000704750EAF3
:100BD000013005D111F0004008BF6FF000407047B0
:100BE0004FF00000704700BF4A0011D212F500120A
:100BF00011D20DD56FF47873B3EB62520ED44FEA75
:100C0000C12343F0004343EA505323FA02F07047F4
:100C10004FF00000704750EA013002D14FF0FF3032
:100C200070474FF0000070474FEA4102B2F1E043D5
:100C300024BFB3F5001CDCF1FE5C0DD901F0004CC3
:100C40004FEAC0024CEA5070B2F1004F40EB830013
:100C500008BF20F00100704711F0804F21D113F13F
:100C60003872BCBF01F00040704741F480114FEA78
:100C70005252C2F11802C2F1200C10FA0CF320FA01
:100C800002F018BF40F001004FEAC1234FEAD3231E
:100C900003FA0CFC40EA0C0023FA02F34FEA430388
:100CA000CCE77FEA625307D150EA01331EBF4FF011
:100CB000FE4040F44000704701F0004040F0FE402C
:100CC00040F40000704700BF80F0004002E000BF29
:100CD00081F0004142001FBF5FEA410392EA030F27
:100CE0007FEA226C7FEA236C6AD04FEA1262D2EB71
:100CF0001363C1BFD218414048404140B8BF5B4276
:100D0000192B88BF704710F0004F40F4000020F00E
:100D10007F4018BF404211F0004F41F4000121F024
:100D20007F4118BF494292EA030F3FD0A2F101026E
:100D300041FA03FC10EB0C00C3F1200301FA03F1AC
:100D400000F0004302D5494260EB4000B0F5000FCF
:100D500013D3B0F1807F06D340084FEA310102F18E
:100D60000102FE2A51D2B1F1004F40EBC25008BF40
:100D700020F0010040EA03007047490040EB00000A
:100D8000013A28BFB0F5000FEDD2B0FA80FCACF10B
:100D9000080CB2EB0C0200FA0CF0AABF00EBC25038
:100DA00052421843BCBFD0401843704792F0000F26
:100DB00081F4000106BF80F400000132013BB5E779
:100DC0004FEA41037FEA226C18BF7FEA236C21D0EF
:100DD00092EA030F04D092F0000F08BF0846704754
:100DE00090EA010F1CBF0020704712F07F4F04D122
:100DF000400028BF40F00040704712F100723CBF35
:100E000000F50000704700F0004343F0FE4040F45E
:100E1000000070477FEA226216BF08467FEA23631C
:100E20000146420206BF5FEA412390EA010F40F407
:100E3000800070474FF0000304E000BF10F0004353
:100E400048BF40425FEA000C08BF704743F096433A
:100E500001464FF000001CE050EA010208BF704755
:100E60004FF000030AE000BF50EA010208BF7047DC
:100E700011F0004302D5404261EB41015FEA010CF1
:100E800002BF84460146002043F0B64308BFA3F1E9
:100E90008053A3F50003BCFA8CF2083AA3EBC253CB
:100EA00010DB01FA02FC634400FA02FCC2F12002EA
:100EB000BCF1004F20FA02F243EB020008BF20F021
:100EC0000100704702F1200201FA02FCC2F1200287
:100ED00050EA4C0021FA02F243EB020008BF20EA7C
:100EE000DC70704753B94AB9002908BF00281CBFFD
:100EF0004FF0FF314FF0FF3000F0E2B8ADF1080CD9
:100F00006DE904CE56F0EAFADDF804E0DDE90223EB
:100F100004B0704700F1340191E838009C46A646C1
:100F20004CF8045D90E8FF0FE54600BD90EC210B06
:100F3000704700BF80EC210B704700BF90EC200B86
:100F4000704700BF80EC200B704700BFD0EC200B37
:100F5000704700BFC0EC200B704700BFF0EC0201EF
:100F6000F0EC0211F0EC0221F0EC0231F0EC024165
:100F7000F0EC0251F0EC0261F0EC0271F0EC028155
:100F8000F0EC0291F0EC02A1F0EC02B1F0EC02C145
:100F9000F0EC02D1F0EC02E1F0EC02F1704700BF9E
:100FA000E0EC0201E0EC0211E0EC0221E0EC0231A5
:100FB000E0EC0241E0EC0251E0EC0261E0EC027195
:100FC000E0EC0281E0EC0291E0EC02A1E0EC02B185
:100FD000E0EC02C1E0EC02D1E0EC02E1E0EC02F175
:100FE000704700BFB0FC0181B0FC0191B0FC01A1D1
:100FF000B0FC01B1704700BFA0FC0181A0FC0191D1
:10100000A0FC01A1A0FC01B1704700BFEC4600B5F7
:101010002DE900502DE9FF1F4FF000032DE90C00D2
:1010200001A956F00DFDDDF840E012B0704700BF99
:10103000EC4600B52DE900502DE9FF1F4FF00003ED
:101040002DE90C0001A956F037FDDDF840E012B0A3
:10105000704700BFEC4600B52DE900502DE9FF1F99
:101060004FF000032DE90C0001A956F045FDDDF815
:1010700040E012B0704700BFEC4600B52DE90050CB
:101080002DE9FF1F4FF000032DE90C0001AB56F0D6
:101090000BFDDDF840E012B0704700BFEC4600B534
:1010A0002DE900502DE9FF1F4FF000032DE90C0042
:1010B00001AA56F07DFDDDF840E012B0704700BF98
:1010C000704700BF000000000000000000000000AA
:1010D0000000000000000000000000000000000010
:1010E000A2EB0300704700BF02780B78012A28BFEB
:1010F0009A42F5D16DE9044540EA0104CDE9026761
:101100006FF0000C4FEA447212B380EA010414F04D
:10111000070F6AD100F0070420F0070004F0030570
:1011200021F007014FEAC505F0E8042314F0040F8D
:10113000F1E804670CFA05F462EA040266EA0406C0
:101140000AD063EA0403624667EA0407664603E0DE
:10115000F0E80423F1E8046782FA4CF582EA060419
:10116000A4FA8CF46CBB83FA4CF583EA0705A5FA64
:101170008CF595B950E9022351E9026782FA4CF5E2
:1011800082EA0604A4FA8CF483FA4CF583EA070594
:10119000A5FA8CF52543DBD09CB92DBAB5FA85F4B8
:1011A00024F0070427FA04F1DDE9026723FA04F3C7
:1011B00003F0FF0001F0FF01FDE80445A0EB010092
:1011C000704724BAB4FA84F424F0070426FA04F130
:1011D000DDE9026722FA04F202F0FF0001F0FF01EC
:1011E000FDE80445A0EB0100704714F0030F3CD16B
:1011F00010F0030428D150F8082B51F8083B82FA6C
:101200004CF582EA0305A5FA8CF55DB950F8042C7B
:1012100051F8043C82FA4CF582EA0305A5FA8CF5F4
:10122000002DE8D02DBAB5FA85F424F0070423FA8E
:1012300004F122FA04F202F0FF0001F0FF01FDE8E0
:101240000445A0EB010070474FEAC40420F00300FE
:1012500050F8082B21F0030151F8083B0CFA04F474
:1012600062EA040263EA0403C9E710F003041AD037
:10127000A1EB040120F00300E40750F8042B06D092
:101280000FD28B785FFAA2F4E41A06D12BB1CB7897
:101290005FFAB2F4E41A00D11BB920465DF8104B96
:1012A000704701F1040150F8042BCC0721F0030131
:1012B00051F8043B48D824D222F07F4482FA4CF5FE
:1012C00094EA1325A5FA8CF50AD165B951F8043BC7
:1012D00084EA0204B4EB036F0ED150F8042BEBE761
:1012E0004FEA132355E035F07F454DD10878FDE8EE
:1012F0000445C0F1000070474FEA126203F0FF039B
:1013000047E002EA1C4482FA4CF594EA1345A5FA38
:101310008CF50AD165B951F8043B84EA0204B4EBB8
:10132000034F0CD150F8042BEBE74FEA134330E0A6
:1013300015EA1C4528D10B884FEA124229E04FEAF2
:10134000124203EA1C4324E002F0FF0482FA4CF547
:1013500094EA1365A5FA8CF50AD165B951F8043BF6
:1013600084EA0204B4EB032F09D150F8042BEBE715
:101370004FEA13630DE015F0FF0F05D10B684FEA3C
:10138000122223F07F4304E04FF00000FDE8044503
:10139000704712BA1BBA82FA4CF482EA0304A4FA28
:1013A0008CF5B5FA85F402FA04F203FA04F34FEA75
:1013B0001260FDE80445A0EB1360704700000000D8
:1013C00001F0FF01102A2BDB10F0070F08D010F8F6
:1013D000013B013A8B422DD010F0070F42B3F6D1FA
:1013E000F0B441EA012141EA014122F007047FF013
:1013F00000070023F0E80256083C85EA010586EA6A
:10140000010685FA47F5A3FA87F586FA47F6A5FAA5
:1014100087F68EB9EED1F0BC01F0FF0102F00702B1
:1014200032B110F8013B013A83EA010313B1F8D15C
:101430000020704701387047002D06BF354603383D
:10144000073815F0010F07D1013015F4807F02BF76
:10145000013015F4C03F0130F0BC0138704700BFC7
:10146000844641EA000313F003036DD1403A41D3AF
:1014700051F8043B40F8043B51F8043B40F8043B6E
:1014800051F8043B40F8043B51F8043B40F8043B5E
:1014900051F8043B40F8043B51F8043B40F8043B4E
:1014A00051F8043B40F8043B51F8043B40F8043B3E
:1014B00051F8043B40F8043B51F8043B40F8043B2E
:1014C00051F8043B40F8043B51F8043B40F8043B1E
:1014D00051F8043B40F8043B51F8043B40F8043B0E
:1014E00051F8043B40F8043B51F8043B40F8043BFE
:1014F000403ABDD2303211D351F8043B40F8043B9E
:1015000051F8043B40F8043B51F8043B40F8043BDD
:1015100051F8043B40F8043B103AEDD20C3205D3AD
:1015200051F8043B40F8043B043AF9D2043208D0A5
:10153000D2071CBF11F8013B00F8013B01D30B8817
:1015400003806046704700BF082A13D38B078DD0F5
:1015500010F003038AD0C3F10403D21ADB071CBFC7
:1015600011F8013B00F8013B80D331F8023B20F831
:10157000023B7BE7043AD9D3013A11F8013B00F86A
:10158000013BF9D20B7803704B7843708B788370F2
:1015900060467047000000000000000000000000EE
:1015A000000000000000000000000000000000003B
:1015B000000000000000000000000000000000002B
:1015C00090F800F06DE9024520F007016FF0000C83
:1015D00010F0070491F820F040F049804FF000042B
:1015E0006FF00700D1E9002391F840F000F1080006
:1015F00082FA4CF2A4FA8CF283FA4CF3A2FA8CF33E
:101600004BBBD1E9022382FA4CF200F10800A4FAA4
:101610008CF283FA4CF3A2FA8CF3E3B9D1E90423F8
:1016200082FA4CF200F10800A4FA8CF283FA4CF32F
:10163000A2FA8CF37BB9D1E9062301F1200182FAE9
:101640004CF200F10800A4FA8CF283FA4CF3A2FAEF
:101650008CF3002BC6D0002A04BF04301A4612BAFD
:10166000B2FA82F2FDE8024500EBD2007047D1E900
:10167000002304F00305C4F100004FEAC50514F08F
:10168000040F91F840F00CFA05F562EA05021CBF60
:1016900063EA050362464FF00004A9E70348044BE0
:1016A000834202D0034B03B118477047B00F0024A8
:1016B000B00F0024000000000548064B1B1AD90F8C
:1016C00001EBA301491002D0034B03B11847704747
:1016D000B00F0024B00F00240000000010B5064C2D
:1016E000237843B9FFF7DAFF044B13B10448AFF393
:1016F00000800123237010BDB00F00240000000003
:101700004CBF060808B5054B1BB105490548AFF3AA
:101710000080BDE80840FFF7CFBF00BF0000000019
:10172000B40F00244CBF06089FED010B704700BFAB
:10173000000000000000000008B50079FEF702FF7D
:1017400041EC100B08BD08B54068FEF71DFF41ECE9
:10175000100B08BD08B50079FEF7F4FE41EC100B44
:1017600008BD0000000000009FED010B704700BFA6
:10177000000000000000000008B54068FEF7E2FE2F
:1017800041EC100B08BD00009FED010B704700BF3E
:1017900000000000000000009FED010B704700BF3B
:1017A00000000000000000009FED010B704700BF2B
:1017B00000000000000000009FED010B704700BF1B
:1017C000000000000000000008B58088FEF7BAFEA7
:1017D00041EC100B08BD00009FED010B704700BFEE
:1017E000000000000000000042688260704708B5F9
:1017F0000B460179184617F03BFF08BD08B50B46AC
:101800000179184617F034FF08BD08B50B46017979
:10181000184617F02DFF08BD08B50B46017918468C
:1018200017F026FF08BD08B50B460179184617F0DA
:101830001FFF08BD08B50B460179184617F018FFC1
:1018400008BD08B50B460179184617F011FF08BD11
:1018500008B50B468188184617F022FF08BD08B569
:101860000B468188184617F01BFF08BD08B50B46CC
:101870004168184617F031FF08BD08B50B464168AE
:10188000184617F02AFF08BD08B50B4641681846F0
:1018900017F023FF08BD10B50446084617F08BFF6C
:1018A000207110BD10B50446084617F084FF0038BB
:1018B00018BF0120207110BD10B50446084617F06E
:1018C0007AFF207110BD10B50446084617F073FF6B
:1018D000207110BD10B50446084617F06CFF20714A
:1018E00010BD10B50446084617F065FF207110BD05
:1018F00010B50446084617F05EFF207110BD10B504
:101900000446084617F06AFFA08010BD10B50446D3
:10191000084617F063FFA08010BD10B504460846C6
:1019200017F075FF606010BD10B50446084617F04B
:101930006EFF606010BD000003468278511E1048A3
:10194000405C022A00D070471A8812F0030FFAD1C7
:101950000C4BA3FB02135B09642101FB13239BB215
:1019600053B9084BA3FB0213DB094FF4C87101FB09
:10197000132292B2002AE6D10130C0B2E3E700BFE1
:10198000BCC806081F85EB5138B5044615461946F4
:1019900017F0A3FE2946204617F09FFE38BD000031
:1019A00010B5826841698A421AD20346C2689142E0
:1019B00009D900681C6904FB02F281182144815096
:1019C000DA680132DA6058689A6801329A605969B7
:1019D0008A4202D202685A6010BD00225A60FBE7B8
:1019E000034B044A40F27111034856F095FD00BFC5
:1019F00024C006082CC0060850C0060808B50369B4
:101A00002B2B02D9FFF7CCFF08BD034B034A7521EE
:101A1000034856F081FD00BF24C00608B4C0060884
:101A200050C0060803460268891A08D44269006952
:101A3000013A00FB02F28A420DDA002000E00020A9
:101A40001B69B1FBF3F203FB1211002914BF002044
:101A500000F0010070470120F2E7000038B50446AD
:101A60000D46FFF7DFFF38B1636863B12B60656037
:101A7000A368013BA36038BD044B054A40F27D11C9
:101A8000044856F049FD00232B60F0E724C1060806
:101A900040C1060850C0060810B4086850F822304B
:101AA000C2F1010C53F82C4040F82240086843F87A
:101AB0002C00022202720B601A725DF8044B704710
:101AC00030B5086850F82240C2F1010C54F82C00DF
:101AD000B3F1020E18BF4FF0010E9A420CBF002561
:101AE0000EF001053DB3154625720C6854F82240EE
:101AF00050F8225044F82C500C6854F8224040F81A
:101B000022409A4214BF4FF0000E0EF0010EBEF1BB
:101B1000000F12D0C2F10103DBB20C6823720B6814
:101B200050F82C4043F822400B6840F82C300860F5
:101B30000223037230BD0225D6E70223EDE708B584
:101B40000B685A7A53F8223005E04FF0020C83F804
:101B500008C053F8223053B15A7A022A07D093F8BA
:101B600008E0C2F1010CE645EFD01A72F1E70B680C
:101B700093F808C0BCF1020F05D05A7A944505D0FD
:101B800002221A7208BD5A7A1A72FBE753F8223001
:101B900093F809E0F44507D0C2F1010C53F82C305A
:101BA0005B7AFFF78DFFEDE7FFF776FFEAE708685E
:101BB00013680B60597AC1F1010153F821101160CB
:101BC00002681A6042685A60027A1A72704710B44A
:101BD00085B0041DC36802E08A4206D25B6823B167
:101BE0009A898A42F8D91B68F9E700940193029414
:101BF0000022039233B1002080F0010005B05DF8AF
:101C0000044B70470120F7E710B485B00C1DCB687A
:101C100002E0914206D25B6823B199899142F8D9DA
:101C20001B68F9E7009401930294002203923BB1F0
:101C30001B6903600123037105B05DF8044B704715
:101C40000271F9E700B5ADF5077D9AB10023009365
:101C50006A46D0F88C010EF06BF9009B83B14FF00F
:101C6000E0234FF08052C3F8042DBFF34F8FBFF332
:101C70006F8F05E000231A46D0F88C010EF094F81F
:101C800018B10DF5077D5DF804FBC021684617F01B
:101C90002FFC0649684608F0E9FF684617F034FC57
:101CA000EFE7684617F030FC20F0DAFC68C1060860
:101CB00030B5ADF2244D01258DF81C5400248DF86B
:101CC0001D449DF81E3464F300038DF81E34DDF8C6
:101CD0001C34ADF804301B0C8DF80630ADF80E4006
:101CE000ADF81040ADF812404FF48062214605A8CF
:101CF0005BF0B6FA8DF81444ADF81644019BADF8CC
:101D000018341B0C8DF81A34312102A817F0B0FCDE
:101D1000294602A802F012FA0DF2244D30BD70B52A
:101D2000ADF5846D16461D4601238DF81C348DF8E3
:101D30001D049DF81E3461F300038DF81E34DDF898
:101D40001C04ADF80400000C8DF806000024ADF86A
:101D50000E40ADF81040ADF812404FF480622146BD
:101D600005A85BF07DFA8DF81444ADF8164401988F
:101D7000ADF81804000C8DF81A04402102A817F0E1
:101D800077FC314602A817F095FD294602A802F01B
:101D9000D5F90DF5846D70BD10B5ADF5826D0446B5
:101DA00017F009FD21280AD104F10D01684617F04A
:101DB000A0FE684617F00EFE0DF5826D10BD0720DF
:101DC00017F0DEFBF8E7034608B1002001E070479A
:101DD000013013F8012B002AFAD1704701607047D7
:101DE00000B583B017F013FD014601A8FFF7F6FF19
:101DF000019803B05DF804FB10B504460846FFF7F0
:101E0000EFFF606010BD000038B505461446064B74
:101E10009A4205D804EB840464002C60284638BD3F
:101E2000112017F0ADFBF5E799999919F8B505461A
:101E30000C68804BA3FB041020F0030101EB900120
:101E4000621AA41A62EB02024FF0CC3604FB06F6CB
:101E500003FB0266A4FB03431E44640844EAC67401
:101E6000760806E0744AA21A144666F100060133A9
:101E70002B802B8813F003011AD1704AA2FB0302B6
:101E80005209642000FB123292B2002A2FD16B4A11
:101E9000A2FB0302D2094FF4C87000FB123292B2C7
:101EA00042B36548002205E0654ADCE7644ADAE7A8
:101EB00061480022844276EB02021ED30029D1D170
:101EC0005E4AA2FB03125209642101FB123292B254
:101ED000002AE9D1594AA2FB0312D2094FF4C87172
:101EE00001FB123292B2002AE0D0534ABBE75448B9
:101EF0000022DFE752480022DCE72846FFF71CFDFE
:101F00000022031852411B1842F10002100140EA5E
:101F100013701901C91A60EB0200030143EA11733F
:101F20000A01521A63EB0003DB0143EA5263D20158
:101F300011461846944276EB03030FD3611A0C4600
:101F400066EB0006AA78531CDBB2AB700C2BD4D91D
:101F50000B3AAA702B8801332B80CEE7EF78394AF1
:101F6000002320463146FEF7BDFF0744EF70354A97
:101F7000002320463146FEF7B5FF16461C462F7952
:101F80004FF46162002330462146FEF7ABFF074461
:101F90002F714FF46162002330462146FEF7A2FF05
:101FA00019466E790024D0183FD22044264CA4FB59
:101FB0000074E408C4EB0414001B101A63F1000C55
:101FC000224F4FF0EE3400FB04F407FB0C44A0FB5F
:101FD00007073C44800840EA847006446E71002084
:101FE000511824D201441848A0FB0140C008C0EB9E
:101FF0000010091A511A63F10003144C4FF0EE302F
:1020000001FB00F004FB0300A1FB043401199B0851
:1020100043EA8173C3EB0313A2EB8302AB7913444E
:10202000AB7128461AF051F8F8BD0124BDE7012034
:10203000D8E700BFCDCCCCCC8033E1011F85EB517C
:102040000085E2018051010089888888EFEEEEEE7C
:1020500030B587B004460D460023029301930093E8
:1020600001231A4640F2E47119F0EAFF2B68059348
:1020700005A92046FFF7DAFE204607B030BD9A4298
:1020800073D02DE9F04182B08446C468081BA3EBED
:10209000020EDCF80450854212D900EB0E06B54260
:1020A0002CD8DCF8003073449D4205D29CF80830EF
:1020B00043F001038CF80830CCF8005008460DE0DE
:1020C0009CF8083043F001038CF80830084612E011
:1020D00012F8013B014601F8013B0846DCF80C30E0
:1020E000DCF800100B449842F2D1DCF80C20DCF84C
:1020F00000300021D15402B0BDE8F081DCF800705E
:10210000A7EB0008CDF80080281AA0EB0E00019084
:10211000804513D901A8D0F800807744BD420FD282
:10212000CCF800509CF8080040F001008CF8080042
:1021300001EB0800464404EB060E0BE06846EAE7B4
:10214000DCF800007044CCF80000F1E710F8014D15
:102150000EF8014D8142F9D103E012F8010B01F8AC
:10216000010B9A42F9D10846BFE7084670470000C4
:1021700070B5036899420ED804461546C6680E44E9
:102180001046FFF720FE2B182A4631462046FFF75F
:1021900076FF204670BD034B034A40F2B34103482B
:1021A00056F0BAF9A0C10608B8C1060874C20608FC
:1021B00003E0002200F8012B19464B1E0029F8D13C
:1021C000704708B5091AFFF7F3FF08BD08B5037A91
:1021D00013F0020F00D108BDC368026841681944BA
:1021E0009818FFF7EEFFF6E738B5044600250560BE
:1021F000FFF7ECFFE3681D70237A23F001032372DD
:1022000038BD000070B5531A002B05DB05460C469F
:102210001646FFF7E9FF0EE0124B134A40F2E121A8
:10222000124856F079F9214611F8014BE8685A1C1A
:102230002A60C4540C46B44203D02B6869688B42B0
:10224000F1D1EA682B680021D154B44204D02B7A32
:1022500043F001032B7270BD2B7A23F001032B7224
:10226000F9E700BFDCC20608E8C2060874C2060827
:1022700010B50446037A13F0020F01D1204610BDB9
:10228000FFF7B2FFFAE738B505460A4603460021D4
:1022900043F8101B402068602972EB6011463AB188
:1022A0001346002200E0013213F8014B002CFAD152
:1022B0000A442846FFF7A6FF04E02846FFF7D8FFA8
:1022C00020F0CEF9284638BD70B5044603460025F7
:1022D00043F8105B4FF4806646600572C3600A44A1
:1022E000FFF790FF04E02046FFF7C2FF20F0B8F9A7
:1022F000204670BD10B5ADF5C66D044617F05BFA0B
:1023000020280BD14FF4806204F10D0187A8FFF75C
:10231000DBFF402101A817F0EBF803E0072017F0DE
:102320002FF909E08A9901A808F0A0FC01A817F08C
:10233000EBF887A8FFF79CFF0DF5C66D10BD01A84F
:1023400017F0E2F887A8FFF793FF20F089F9F9E783
:1023500010B50446FFF78CFF204610BD38B5054682
:102360000A460346002143F8101B082068602972C2
:10237000EB6011463AB11346002200E0013213F837
:10238000014B002CFAD10A442846FFF73BFF04E03A
:102390002846FFF76DFF20F063F9284638BD38B5B1
:1023A00005460C46C96822680A44FFF72BFF237ACA
:1023B00013F0010F03D02B7A43F001032B72237A21
:1023C00013F0020F03D02B7A43F002032B7228463E
:1023D000FFF7FCFE38BD0368426893420BD010B48F
:1023E000C2685C1C0460D154C26803680021D154E7
:1023F0005DF8044B7047037A43F0010303727047A2
:1024000008B5944608B949B908BDD0681168084BA9
:10241000DA1E01446046FFF732FEF5E7D068116826
:10242000044BDA1E01446046FFF729FEECE700BFCB
:10243000BBC80608B7C806080B68D3B130B407E0BC
:10244000184630BC7047181DFBE710D22B4663B10D
:102450001C689442F4D05D689542F4D092F80CC0A8
:102460001B7B6345F1D92346F1E70830E9E70846CD
:10247000E7E70830704703780A7802700B707047FE
:1024800038B505460C46884205D107E02146284666
:10249000FFF7F1FF0135013CA542F7D338BD844673
:1024A0000846002A67D02DE9F04182B01546DCF8D5
:1024B0000C20A1EB020EDCF80410714508D89CF842
:1024C000083043F001038CF8083002B0BDE8F08119
:1024D00005EB0E06B1421AD8DCF800402C44A142AC
:1024E00005D29CF8084044F001048CF80840CCF870
:1024F00000101144024601E002F8013B8A42FBD180
:10250000DCF80C20DCF800300021D154DDE7DCF8E9
:102510000070A7EB0E08CDF80080A1EB0E0EAEEB1D
:1025200005040194A04510D901AC24682F44B94298
:102530000DD2CCF800109CF8081041F001018CF885
:1025400008100119264432440BE06C46EDE7DCF834
:1025500000102944CCF80010F3E711F8014D02F8FF
:10256000014D8842F9D14119024601E002F8013BD0
:102570009142FBD1C4E7704710B51346C2680468A6
:1025800002EB040CACEB010E5A78964507D2A2EB95
:102590000E021C7924B1DB796146FFF780FF10BD84
:1025A000DB79FFF77CFFFAE72DE9F04104460E46A0
:1025B00015469DF818808BB1F76833681F4434BB0B
:1025C0002B780A2B0ED030213046FFF704FF2A4625
:1025D00039463046FFF7D0FFBDE8F0810846FFF7E7
:1025E00003FEE9E7B8F1000FEDD02D213046FFF7EB
:1025F000F2FEE8E7D9B25731C9B202E0D9B23031C0
:10260000C9B23046FFF7E7FE2B78B4FBF3F46CB1A8
:102610002A78B4FBF2F302FB1343092BEED9EA78D4
:10262000002AE7D0D9B23731C9B2EAE72B780A2BB2
:102630000FD0AB7933B12B78082B1FD0102B22D0C1
:10264000022B0ED0F168336819443846FFF718FFA3
:10265000BDE7B8F1000FECD02D213046FFF7BBFEEF
:10266000E7E7EB7843B142213046FFF7B4FE302173
:102670003046FFF7B0FEE5E76221F5E7302130464E
:10268000FFF7A9FEDEE7EB7843B158213046FFF7AC
:10269000A2FE30213046FFF79EFED3E77821F5E712
:1026A00030B583B00C4600250095FFF77DFF20462E
:1026B00003B030BD08B5FFF7F3FF08BDF0B5ADF2CC
:1026C000446D16461F4601258DF82C568DF82D06B3
:1026D0009DF82E3661F300038DF82E36DDF82C368A
:1026E000ADF800301B0C8DF802300024ADF81E420E
:1026F000ADF82042ADF822424FF48062214689A80D
:102700005AF0AEFD8DF82446ADF82646009BADF894
:1027100028361B0C8DF82A36294686A816F0A8FF05
:102720000A2186A816F0BCFF344614361AE0294662
:1027300086A816F0B5FF2A461C490DF5C760FFF7BD
:1027400063FADDF8380603681B6886A9984708E035
:102750000123174A01462846FFF7ACFF684616F0EA
:10276000D3FE0234B44215D025882A460F490DF510
:10277000C660FFF749FA9DF834060028D7D1002D2E
:10278000EFD0C021684616F0B3FE0A49684608F04B
:102790006DFADDE7394686A801F0D0FC0DF2446DF4
:1027A000F0BD684616F0B0FE1FF05AFF60FB0D2426
:1027B0001C0000244CC3060870B586B0054616F010
:1027C000FAFF02280AD1284617F008F80646002426
:1027D000019402940394049405940DE0072016F0EC
:1027E000CFFE14E0284616F0F9FF06AB03EB4403D6
:1027F00023F8140C0134A4B2B442F3D395F81214A4
:10280000012301AA194095F81004FFF757FF06B0FD
:1028100070BD000000B583B084468E46134606495D
:102820006A4603C982E8030071466046FFF738FF35
:1028300003B05DF804FB00BF68BF06082DE9F8434C
:1028400005460C4617461E469DF820309DF82490FC
:10285000A3B1FA683B6802EB030855EA04032BD1E5
:1028600033780A2B0ED030213846FFF7B4FD3246BC
:1028700041463846FFF780FEBDE8F8831046FFF773
:10288000B3FCE6E7B9F1000FEDD02D213846FFF794
:10289000A2FDE8E7D1B25731C9B202E0D1B230317E
:1028A000C9B23846FFF797FD327800232846214603
:1028B000FEF718FB05460C4655EA040310D03278A3
:1028C000002328462146FEF70DFB0A2A73F1000378
:1028D000E4D3F378002BDDD0D1B23731C9B2E0E7D1
:1028E00033780A2B0FD0B37933B13378082B1FD04C
:1028F000102B22D0022B0ED0F9683B6819444046B9
:10290000FFF7BEFDB3E7B9F1000FECD02D2138463B
:10291000FFF761FDE7E7F37843B142213846FFF75F
:102920005AFD30213846FFF756FDE5E76221F5E70D
:1029300030213846FFF74FFDDEE7F37843B15821E9
:102940003846FFF748FD30213846FFF744FDD3E70E
:102950007821F5E72DE9F04182B090461D46089EAA
:102960000A9F9DF82C40019401240094099B324653
:10297000FFF764FFBC7814B902B0BDE8F0812E21E6
:102980003046FFF728FD00230193012300933B46C7
:10299000324640462946FFF751FFEDE700000000B0
:1029A0002DE9F04F91B05BEC10AB06460F46002AC4
:1029B00051D0F268336802EB030852465B4650463A
:1029C0005946FEF7D3F890B92BF000454FF0FF328F
:1029D000714B50462946FEF7C9F800283ED14FF00A
:1029E000FF326D4B50462946FEF7A2F8B0BB4FF0C0
:1029F000010952465B4650465946FEF7B7F808B9FA
:102A00004FF000095FFA89F954462BF000454FF06A
:102A1000010A4FF0FF32604B20462946FEF7A6F828
:102A200048B94FF0FF325C4B20462946FEF780F84C
:102A300008B94FF0000A8AF00101324601F00101A5
:102A40004846FFF7DDFC3A4641463046FFF794FD25
:102A500011B0BDE8F08FFFF7C7FBAAE70CAB3868F1
:102A6000796803C30A238DF8303000238DF83130A4
:102A700097F802C0BCF10F0F01D94FF00F0C5FFAAD
:102A80008CFC8DF832C00CAB93E8030010AB03E96B
:102A900003008DF839C030238DF83F3000258DF8C4
:102AA0003C502946012409E0AB0043EA9473A2009C
:102AB000141945EB030524196D4101316145F3D328
:102AC0000022002350465946FEF728F8002847D137
:102AD000CDE904AB9DED040B53F076FC53EC102BC9
:102AE0008DED080B1046194654F0DAFC0B91079057
:102AF0000A91DDE90823DDE90401FDF7E5FBCDE9F5
:102B0000040120462946FDF761FDDDE90423FDF7B8
:102B100093FD41EC100B53F0DBFC51EC100B54F027
:102B2000BFFC814604918D4208BF844222D04FF001
:102B300001040022002350465946FDF7EFFF08B973
:102B40004FF00004E4B203940EAB02930CAB01937C
:102B500000964A46049B07980A99FFF7FBFE72E726
:102B60009FED0B7B8DED047BCDF810A00BF10043A6
:102B70000593AFE7079B013307930B9B43F10003DA
:102B80000A934FF00009CDF81090D0E7AFF3008022
:102B90000000000000000000FFFFEF7F10B50446BA
:102BA000FFF7FEFE204610BD00B583B084460A46FE
:102BB00005496B4603C983E8030019466046FFF7E1
:102BC000EDFF03B05DF804FB68BF0608F0B5ADF596
:102BD0001F7D064616F0EFFD012805D1304616F0A0
:102BE000FDFD0746002435E0072016F0C9FC0DF571
:102BF0001F7DF0BD2A46294901A8FFF705F8019D70
:102C00002B689B6828469847012103A8FFF7CCFF53
:102C10002B685B68314628469847214A039903A8E8
:102C2000FFF7A6FA2B689B6828469847012103A85E
:102C3000FFF7BAFF402118A816F05AFC069918A809
:102C400008F014F818A816F05FFC03A8FFF710FBB3
:102C50000134A4B2BC42CAD2304616F0BFFD0546CC
:102C600001460E48FEF7B3FF0028F1D00D4903A836
:102C7000FFF709FB012203A92846FFF7CBFD0A4A0B
:102C8000039903A8FFF774FAB4E718A816F03CFC00
:102C900003A8FFF7EDFA1FF0E3FCF9E760FB0D2452
:102CA000A8C306087CC30608A0C3060838B50546B5
:102CB0000C4601F11000FFF7DBFA2146E868FEF749
:102CC000CDFE38BD70B50C68002C49D08568002653
:102CD0000FE09C451AD20123637294F809C054F89E
:102CE0002C30CBB193F808C0BCF1020F00D02646BF
:102CF0001C46FCB1237A022B00D02546137B94F8A6
:102D00000CC09C45E5D900236372E6E70223637299
:102D10001146FFF7CBFF2EE00223137253720023FC
:102D20001360536044F82C20036801330360637A16
:102D300054F82340FDB12EB1717A06EB8101FEF704
:102D4000FEFE18E08368AB4205D00B68AB4212D19F
:102D5000FEF7F5FE0FE000F10801FEF7F0FE0AE0D5
:102D60000223137253720023136053600A600368D6
:102D7000013303600C68204670BD2DE9F843074617
:102D80000B68846800252E46A846A94610E08842B4
:102D900002D20121597212E01968B1FA81F1490990
:102DA00059729846B1460AE01C4635461E4603460F
:102DB000D3B11178187B8842E9D900215972597A28
:102DC00053F8210080B193F808C0BCF1020FEBD09A
:102DD000C1F101018C45E9D153F82110097A02298A
:102DE000E4D11C463546E1E7B8F1000F07D19BE07E
:102DF000C2F101022272637A254654F82340002C66
:102E00007ED0627A54F82230002B79D0237A022BBC
:102E1000EED09A4223D0C2F1010354F82300037A82
:102E20009A421FD0022B37D0002D55D0697AC2F1BB
:102E30000102D2B205EB81013846FEF72DFEA04516
:102E4000D9D1002D51D06B7A55F82390D9F80030A4
:102E5000B3EB080318BF012389F80930CBE702233D
:102E60002372C8E765B1697A50F82230C2F10102D5
:102E70001B7AD2B205EB81013846FEF721FEDEE770
:102E800050F82230C2F101021B7AD2B207F10801D8
:102E90003846FEF715FED2E795B1697AC2F1010214
:102EA000D2B205EB81013846FEF7F6FD6B7A55F894
:102EB0002330627A1A72637AC3F101032372BEE788
:102EC000C2F10102D2B207F108013846FEF7E4FD73
:102ED000BB68627A1A72EEE7C2F10102D2B207F160
:102EE00008013846FEF7D8FDA9E7D7F80890D9F8C9
:102EF0000030B3EB080318BF012389F809307AE7E3
:102F0000B9F1000F13D099F80910727A06EB82021A
:102F100009EB81013846FEF74AFE3B68013B3B6006
:102F200041463846FFF7C2FE4046BDE8F88346B149
:102F3000727A06EB820207F108013846FEF737FE87
:102F4000EBE707F108010A463846FEF730FEE4E7F2
:102F500038B504460346002243F8102B0825456087
:102F60000272C360FFF71BFA04E02046FFF780F906
:102F70001FF076FB204638BD30B583B00C46094BB8
:102F8000009300230193C068FEF738FD05462146F3
:102F900011F8043B03731030FFF7DAFF284603B043
:102FA00030BD00BFFD19000870B582B00C46114657
:102FB000226863689A4216D005462046FFF7DCFF78
:102FC0000646024604F108012046FFF77BFE8642D2
:102FD00014BF00260126009401902C6068602E72B8
:102FE000284602B070BD034B034A40F28E410348AD
:102FF00055F092FAB8C30608C4C30608E0C4060830
:1030000070B584B006460C46154605E022463146AA
:1030100001A8FFF7C9FF2034AC42F7D104B070BD5E
:10302000002918BF002A1AD010B40C46134691424A
:103030000ED0204668B102689A420AD044689C4289
:1030400007D0197B90F80CC08C4505D91046F1E7E4
:1030500000205DF8044B7047EBD30446E9E70020FD
:1030600070470A68C2B170B504460D4653686BB923
:103070002A601646A1682046FFF7D2FF024610B12B
:103080004368B342F4D02A6005E0134613B11A68CE
:10309000002AFAD12B6070BD7047F8B505460C4682
:1030A000164601F10807526839462046FFF7C4F971
:1030B00003682C60294641F8043F2046FFF7D1FF02
:1030C00072680C3239462046FFF757FE2846F8BD95
:1030D00010B58EB00446836800E0134613B11A6839
:1030E000002AFAD102940393009401930DE008930F
:1030F000019B099308AA214606A8FFF7CEFF069A6E
:103100000492079B0593009201930C9400230D9366
:103110000A940B93009B9C42E9D1019A002AE6D1C4
:103120000EB010BD10B50446FFF7D2FF204610BD0B
:1031300070B582B0044602AB03E9060002460023E4
:1031400042F8143B052141608360C26000F12C020B
:1031500042618261C36103622C2343628162009EEB
:10316000019A06EB4215FFF7B3FF2A463146204687
:10317000FFF746FF204602B070BD0000012800D0D6
:10318000704730B5ADB004464FF6FF73994201D099
:103190002DB030BD8F4B1B6813F0010F00F08A82F9
:1031A0008D4B1B6813F0010F09D18B4B01221A6064
:1031B0008A4B8B4A1A608B4A1A6000229A808A4B8B
:1031C0001B6813F0010F09D1874B01221A60874B4E
:1031D000834A1A60834A1A6000229A80844B1B68D3
:1031E00013F0010F09D1824B01221A60814B7C4AF6
:1031F0001A60814A1A6000229A80804B1B6813F083
:10320000010F08D101227D4B1A607D4B7449196072
:103210007C4919601A717C4B1B6813F0010F08D1AF
:103220000122794B1A60794B6D4919607549196013
:103230001A71774B1B6813F0010F09D1744B0122EF
:103240001A60744B664A1A60734A1A6002221A7135
:10325000724B1B6813F0010F09D1704B01221A60E9
:103260006F4B5F4A1A606F4A1A6002221A716E4BE6
:103270001B6813F0010F0AD16B4B01221A606B4BD4
:10328000574A1A60574A1A604FF496729A80684BF0
:103290001B6813F0010F09D1654B01221A60654BC1
:1032A0004F4A1A604F4A1A6000229A80624B1B688C
:1032B00013F0010F09D1604B01221A605F4B484A9D
:1032C0001A605F4A1A6000225A605E4B1B6813F056
:1032D000010F09D15B4B01221A605B4B404A1A6017
:1032E000574A1A6000225A60584B1B6813F0010FAE
:1032F00009D1564B01221A60554B394A1A60554A7A
:103300001A6000221A71544B1B6813F0010F09D187
:10331000514B01221A60514B314A1A604D4A1A60D2
:1033200000221A714E4B1B6813F0010F09D14C4B50
:1033300001221A604B4B2A4A1A604B4A1A6000223B
:103340001A714A4B1B6813F0010F09D1474B012238
:103350001A60474B224A1A60464A1A6000225A6095
:10336000454B1B6813F0010F09D1434B01221A6032
:10337000424B1B4A1A60424A1A6000221A71414BA2
:103380001B6813F0010F09D13E4B01221A603E4B1E
:10339000134A1A603A4A1A6000221A713B4B1B68A2
:1033A00013F0010F09D1394B01221A60384B0C4A36
:1033B0001A600C4A1A6000229A80364B1B6813F080
:1033C000010F6FD1334B01221A60334B044A1A604C
:1033D00064E000BF681000246410002470290024F9
:1033E000B8C70608E0C70608601000246829002452
:1033F0005C10002460290024F4C70608581000243B
:103400005829002408C80608541000245029002414
:1034100050100024482900241CC806084C10002421
:103420004029002430C80608481000243829002408
:1034300044100024302900244010002428290024AE
:1034400044C806083C100024202900243810002419
:103450001829002458C80608341000241029002414
:1034600030100024082900246CC806082C10002401
:103470000029002480C8060828100024F828002409
:1034800094C8060824100024F028002420100024EA
:10349000E82800241C100024E02800248D4A1A602B
:1034A00000229A808C4B1B6813F0010F09D18A4BC4
:1034B00001221A60894B8A4A1A60864A1A600022E1
:1034C0009A80884B1B6813F0010F09D1854B0122AC
:1034D0001A60854B824A1A607E4A1A6000229A80DE
:1034E000824B1B6813F0010F09D1804B01221A6037
:1034F0007F4B7B4A1A60774A1A6000229A807D4B84
:103500001B6813F0010F09D17A4B01221A607A4B24
:10351000734A1A606F4A1A6000229A80774B1B68C0
:1035200013F0010F09D1754B01221A60744B6C4ADC
:103530001A60684A1A6000229A80724B1B6813F066
:10354000010F09D16F4B01221A606F4B644A1A6058
:10355000604A1A6000229A806C4B1B6813F0010FBE
:1035600009D16A4B01221A60694B5D4A1A60594AB7
:103570001A6000229A80674B1B6813F0010F09D173
:10358000644B01221A60644B554A1A60634A1A6000
:1035900000225A60624B1B6813F0010F09D1604B87
:1035A00001221A605F4B4E4A1A605C4A1A60002280
:1035B0005A605D4B1B6813F0010F09D15A4B012271
:1035C0001A605A4B464A1A60594A1A6000221A7108
:1035D000584B1B6813F0010F09D1564B01221A609A
:1035E000554B3F4A1A603B4A1A6000229A80534B5F
:1035F0001B6813F0010F09D1504B01221A60504B88
:10360000374A1A60454A1A6000225A604D4B1B68BF
:1036100013F0010F09D14B4B01221A604A4B304A7B
:103620001A603E4A1A6000225A60484B1B6813F029
:10363000010F09D1454B01221A60454B284A1A60F7
:10364000364A1A6000225A60424B1B6813F0010F81
:1036500008D101223F4B1A603F4B214919603F4975
:1036600019601A713E4B1B6813F0010F00F08A803D
:103670003C4B1B6813F0010F00F092803A4B1B6823
:1036800013F0010F00F09B80384B1B6813F0010F03
:1036900000F0A480364B1D6815F001057FF478AD6D
:1036A00001221A6000238DF80430324902A8FEF787
:1036B00055FEB0E0304B01221A600022002329A8F9
:1036C000FEF7A2FB2D4B064A1A602D4A1A60299A72
:1036D0005A6065E5E0C7060818100024D8280024C1
:1036E000B8C7060814100024D028002410100024A5
:1036F000C82800240C100024C0280024081000242E
:10370000B828002404100024B0280024001000244D
:10371000A8280024FC0F0024A028002444C8060880
:10372000F80F002498280024F40F00249028002487
:10373000A8C80608F00F002488280024EC0F0024F5
:1037400080280024E80F002478280024E40F0024B7
:1037500070280024E00F00246828002494C806087C
:10376000DC0F0024D80F0024D40F0024D00F002435
:10377000CC0F002448C506086810002478290024CE
:10378000CCC706084A4B01221A604A4D4A492846CE
:10379000FEF7E4FD494A4A4928461EF037FE67E72E
:1037A000484B01221A6048480346402243F80C2B3C
:1037B00043608360414A45491EF028FE5EE7444B62
:1037C00001221A6043480346402243F80C2B436011
:1037D00083603A4A3D491EF019FE55E73E4B0122EF
:1037E0001A603E480346402243F80C2B4360836036
:1037F000324A36491EF00AFE4CE70425C5F104039F
:1038000001AA02EB431401AB9C424ED0203C201D88
:10381000FEF72EFDF7E701238DF8243026490AA88C
:10382000FEF79CFD01E00325E8E702238DF8443014
:103830002B4912A8FEF792FD01E00225DEE70323E3
:103840008DF8643027491AA8FEF788FD01E0254667
:10385000D4E704238DF88430234922A8FEF77EFDA7
:1038600001AB2A9305232B932CAB13E906001F48C9
:10387000FFF75EFC29AC03E0203C201DFEF7F8FCBE
:1038800001AB9C42F8D10D4A194918481EF0BEFD03
:103890007EE429AC01AB9C4204D0203C201DFEF705
:1038A000E7FCF7E70425A9E7A8E71EF0D9FE00BF6B
:1038B000DC0F00244C28002440C50608000000242A
:1038C00051230008D80F002400280024E91700081D
:1038D000D40F0024B4270024D00F0024682700242C
:1038E0004CC5060854C5060858C5060860260024BD
:1038F0002531000808B54FF6FF710120FFF73EFCA7
:1039000008BD000000B589B0002300930193032295
:1039100002920122039240F28232049240F2FF327C
:1039200005920693694605480FF008FC10B909B0E6
:103930005DF804FB0AF0C2F9F9E700BF4CB20C24B1
:10394000074B00225A609A604FF47021D9601A61C7
:103950005A614FF400119961DA611A62704700BF31
:103960008029002408B5FFF7CDFFFFF7E9FF0848DD
:103970000FF028FC30B90022012105480FF066FD48
:1039800018B908BD0AF09AF9F5E70AF097F9F8E7CF
:103990004CB20C2438B515460C1A01D1281938BD83
:1039A00022460146284659F0DBFBF7E7F8B5044606
:1039B000064656F8043B0C4F3B600C4D402200215C
:1039C000686859F04DFC6A6804F144013046FFF71D
:1039D000E1FF6A68394606480FF00EFC00B9F8BDF1
:1039E0000AF06CF9FBE700BF8029002400280024BE
:1039F0004CB20C24012800D070474FF6FF73994257
:103A0000FAD110B582B08F4B1B6813F0010F00F094
:103A10007A828D4B1B6813F0010F09D18A4B01226A
:103A20001A608A4B8A4A1A608A4A1A6000229A806F
:103A3000894B1B6813F0010F09D1874B01221A60D3
:103A4000864B834A1A60834A1A6000229A80844B0C
:103A50001B6813F0010F09D1814B01221A60814BC1
:103A60007B4A1A60804A1A6000229A807F4B1B684A
:103A700013F0010F08D101227C4B1A607C4B744972
:103A800019607C4919601A717B4B1B6813F0010F98
:103A900008D10122784B1A60784B6D49196075493D
:103AA00019601A71764B1B6813F0010F09D1744B22
:103AB00001221A60734B664A1A60734A1A60022226
:103AC0001A71724B1B6813F0010F09D16F4B012261
:103AD0001A606F4B5E4A1A606E4A1A6002221A71AF
:103AE0006D4B1B6813F0010F0AD16B4B01221A605A
:103AF0006A4B574A1A60574A1A604FF496729A8076
:103B0000674B1B6813F0010F09D1654B01221A6046
:103B1000644B4F4A1A604F4A1A6000229A80624BE7
:103B20001B6813F0010F09D15F4B01221A605F4B34
:103B3000474A1A605E4A1A6000225A605D4B1B6851
:103B400013F0010F09D15B4B01221A605A4B404A16
:103B50001A60574A1A6000225A60584B1B6813F0CB
:103B6000010F09D1554B01221A60554B384A1A6092
:103B7000544A1A6000221A71534B1B6813F0010F4C
:103B800009D1514B01221A60504B314A1A604D4AFB
:103B90001A6000221A714E4B1B6813F0010F09D1F5
:103BA0004B4B01221A604B4B294A1A604A4A1A6051
:103BB00000221A71494B1B6813F0010F09D1474BC2
:103BC00001221A60464B224A1A60464A1A600022B5
:103BD0005A60454B1B6813F0010F09D1424B01227B
:103BE0001A60424B1A4A1A60414A1A6000221A713E
:103BF000404B1B6813F0010F09D13E4B01221A60A4
:103C00003D4B134A1A603A4A1A6000221A713B4B24
:103C10001B6813F0010F09D1384B01221A60384B91
:103C20000B4A1A600B4A1A6000229A80354B1B68B7
:103C300013F0010F6ED1334B01221A60324B044A4C
:103C40001A6063E0681000246410002470290024C6
:103C5000B8C70608E0C706086010002468290024D9
:103C60005C10002460290024F4C7060858100024C2
:103C70005829002408C8060854100024502900249C
:103C800050100024482900241CC806084C100024A9
:103C90004029002430C80608481000243829002490
:103CA0004410002430290024401000242829002436
:103CB00044C806083C1000242029002438100024A1
:103CC0001829002458C8060834100024102900249C
:103CD00030100024082900246CC806082C10002489
:103CE0000029002480C8060828100024F828002491
:103CF00094C8060824100024F02800242010002472
:103D0000E82800241C100024E02800248D4A1A60B2
:103D100000229A808C4B1B6813F0010F09D18A4B4B
:103D200001221A60894B8A4A1A60864A1A60002268
:103D30009A80884B1B6813F0010F09D1854B012233
:103D40001A60854B824A1A607E4A1A6000229A8065
:103D5000824B1B6813F0010F09D1804B01221A60BE
:103D60007F4B7B4A1A60774A1A6000229A807D4B0B
:103D70001B6813F0010F09D17A4B01221A607A4BAC
:103D8000734A1A606F4A1A6000229A80774B1B6848
:103D900013F0010F09D1754B01221A60744B6C4A64
:103DA0001A60684A1A6000229A80724B1B6813F0EE
:103DB000010F09D16F4B01221A606F4B644A1A60E0
:103DC000604A1A6000229A806C4B1B6813F0010F46
:103DD00009D16A4B01221A60694B5D4A1A60594A3F
:103DE0001A6000229A80674B1B6813F0010F09D1FB
:103DF000644B01221A60644B554A1A60634A1A6088
:103E000000225A60624B1B6813F0010F09D1604B0E
:103E100001221A605F4B4E4A1A605C4A1A60002207
:103E20005A605D4B1B6813F0010F09D15A4B0122F8
:103E30001A605A4B464A1A60594A1A6000221A718F
:103E4000584B1B6813F0010F09D1564B01221A6021
:103E5000554B3F4A1A603B4A1A6000229A80534BE6
:103E60001B6813F0010F09D1504B01221A60504B0F
:103E7000374A1A60454A1A6000225A604D4B1B6847
:103E800013F0010F09D14B4B01221A604A4B304A03
:103E90001A603E4A1A6000225A60484B1B6813F0B1
:103EA000010F09D1454B01221A60454B284A1A607F
:103EB000364A1A6000225A60424B1B6813F0010F09
:103EC00008D101223F4B1A603F4B214919603F49FD
:103ED00019601A713E4B1B6813F0010F23D03D4B44
:103EE0001B6813F0010F00F089803B4B1B6813F037
:103EF000010F00F09280394B1B6813F0010F00F0A6
:103F00009B8002B010BD364B01221A6000220023B4
:103F100001A8FDF779FF334B0D4A1A60324A1A6047
:103F2000019A5A6075E52A4B01221A602F4C3049DC
:103F30002046FEF713FA2F4A2F4920461EF066FA54
:103F4000CDE700BFE0C7060818100024D8280024D9
:103F5000B8C7060814100024D0280024101000242C
:103F6000C82800240C100024C028002408100024B5
:103F7000B828002404100024B028002400100024D5
:103F8000A8280024FC0F0024A028002444C8060808
:103F9000F80F002498280024F40F0024902800240F
:103FA000A8C80608F00F002488280024EC0F00247D
:103FB00080280024E80F002478280024E40F00243F
:103FC00070280024E00F00246828002494C8060804
:103FD000DC0F0024D80F0024D40F0024D00F0024BD
:103FE0006810002478290024CCC706084C28002437
:103FF00040C506080000002451230008164B01228A
:104000001A6016480346402243F80C2B4360836035
:10401000134A14491EF0FAF967E7134B01221A609C
:1040200012480346402243F80C2B436083600C4A3D
:104030000C491EF0EBF95EE70D4B01221A600D48AA
:104040000346402243F80C2B43608360044A054931
:104050001EF0DCF955E700BFD80F0024002800242B
:1040600000000024E9170008D40F0024B42700241E
:10407000D00F00246827002430B583B00C460025FB
:104080000095FEF791FA204603B030BD08B5FFF762
:10409000F3FF08BD30B583B00C4600250095FEF750
:1040A00083FA204603B030BD00B583B084468E4607
:1040B00013466A46054903C982E803007146604613
:1040C000FFF7E8FF03B05DF804FB00BF94BF0608EC
:1040D00038B515460C1A01D1281B38BD22460146B9
:1040E000281B59F03DF8F7E708B5FFF7F1FF08BDC9
:1040F0002DE9F0410646884614464422002159F035
:10410000AFF8346000240DE0D8F804301F5D351D91
:1041100006F1440206F143012819FFF7E5FF2F5588
:104120000134E4B23F2CEFD93046BDE8F08108B548
:104130004FF6FF710120FFF75DFC08BD2DE9F0434C
:10414000A5B005468846448990F81064360146F4C7
:10415000607690F8113446EA430690F8123403F082
:1041600001031E433F2C31D84022002103A859F0FF
:1041700077F804F03F038DF80C300023A34210D2EF
:10418000EA18117B01333F2B05D803F190026A44F2
:1041900002F8841CF2E74C4B4C4A7B214C4854F00B
:1041A000BBF9139614AC03AD0FCD0FC40FCD0FC4E4
:1041B0000FCD0FC495E80F0084E80F00424613A905
:1041C0004448FDF73FFD25B0BDE8F083C4F3052763
:1041D00047F040075FFA84F94022002103A859F014
:1041E0003FF88DF80C708DF80D9013960DF1500C72
:1041F00003AF0FCFACE80F000FCFACE80F000FCF2D
:10420000ACE80F0097E80F008CE80F00424613A9B6
:104210003048FDF717FD07EE904AF8EE677A9FEDFC
:104220002E0A87EE800A52F0A3F9FCEEC07ACDED9B
:10423000017A9DF80470012424E044F0C00929E0CB
:10424000214B224A7B21224854F066F913960DF146
:10425000500C0DF10C0EBEE80F00ACE80F00BEE8EC
:104260000F00ACE80F00BEE80F00ACE80F009EE8BE
:104270000F008CE80F00424613A91648FDF7E2FC38
:104280000134E4B2BC429ED804F03F0949F08009F1
:10429000BC42D2D04022002103A858F0E1FF8DF8A3
:1042A0000C9000223E2AD1D8631EC3EB8313134423
:1042B0002B44197B531C3F2BC2D890336B4403F81B
:1042C000841C0132D2B2EDE7C8C80608D4C806087B
:1042D00060C906087010002400007C4200B583B05D
:1042E000836802E0944508D95B6833B191F800C057
:1042F0001A7B9445F6D21B68F7E70090019323B12F
:1043000003F1100003B05DF804FB034B034A40F2D5
:10431000AF31034854F000F9C4C90608E4C90608DF
:10432000E0C4060870B504460D460168EA682B68CB
:104330001344C6683144FDF7A2FE2B7A13F0010F37
:1043400003D0237A43F001032372204670BD38B5B1
:1043500005460A460346002143F8101B4FF48060CF
:1043600068602972EB6011463AB11346002200E002
:10437000013213F8014B002CFAD10A442846FDF70C
:1043800041FF04E02846FDF773FF1EF069F9284657
:1043900038BD000010B5ADF5266D0446037B013B2A
:1043A0003F2B00F2B080DFE803F0202522AEAEAE56
:1043B000AEAEAEAEAEAEAEAEAE22AEAEAEAEAEAEA9
:1043C000AEAEAEAEAEAEAEAEAE282B22AEAEAEAEA2
:1043D000AEAEAEAEAEAEAEAEAE2E51AEAEAEAEAEDA
:1043E000AEAEAEAEAEAEAEAEAE72FEF7EFFB0DF55C
:1043F000266D10BDFEF7E0F9F9E7FDF77BFFF6E764
:10440000FDF7CAFCF3E790F810348DF8203008A9C6
:104410005248FFF763FF01468EA8FEF799FD402141
:104420000DF24C6015F064F84D490DF24C6006F049
:104430001DFC919906F01AFC0DF24C6015F064F821
:10444000FDF736FC8EA8FDF713FFD0E790F8103487
:104450008DF8203008A94148FFF740FF01468EA89B
:10446000FEF776FD40210DF24C6015F041F83D4914
:104470000DF24C6006F0FAFB919906F0F7FB0DF295
:104480004C6015F041F88EA8FDF7F2FEAFE790F80A
:1044900010348DF803300DF103013048FFF71EFF93
:1044A000014601A8FEF754FD2F498EA8FFF74FFFE4
:1044B00001A98EA8FFF736FF2C4A8E998EA8FDF72A
:1044C00057FE6289013A04F10D010DF24C60FDF7CF
:1044D000FBFE402108A815F00BF8919908A806F0FA
:1044E000C5FBDDF8581606F0C1FB08A815F00CF85E
:1044F0000DF24C60FDF7BCFE8EA8FDF7B9FE01A8D9
:10450000FDF7B6FE73E7072015F03AF86FE70DF2F6
:104510004C6014F0F9FF8EA8FDF7AAFE1EF0A0F87B
:10452000F9E70DF24C6014F0EFFF8EA8FDF7A0FE46
:104530001EF096F8F9E708A814F0E6FF0DF24C60BB
:10454000FDF796FE8EA8FDF793FE01A8FDF790FEFD
:104550001EF086F8F2E7F5E7F7E700BF60260024D3
:10456000ECCA060800CB060814CB060828CB0608C0
:1045700070B5ADF5846D05460024ADF80A40ADF880
:104580000C40ADF80E404FF48062214604A858F06C
:1045900067FE8DF81044ADF81244ADF814448DF860
:1045A00016442B68C3F302128DF81424C3F342019E
:1045B0008DF8151403F00103E2B263F300028DF8E5
:1045C0001624DDF81424ADF81C24120C8DF81E24DA
:1045D000DDF81C24ADF81824120C8DF81A240BB940
:1045E00001290FD12E7906F03F06012405E02B1991
:1045F000197901A815F03CF80134B442F7D901A8A3
:10460000FFF7C8FE0DF5846D70BD0000012800D0D5
:10461000704730B5ADB004464FF6FF73994201D0F4
:104620002DB030BD8F4B1B6813F0010F00F08A8254
:104630008D4B1B6813F0010F09D18B4B01221A60BF
:104640008A4B8B4A1A608B4A1A6000229A808A4BE6
:104650001B6813F0010F09D1874B01221A60874BA9
:10466000834A1A60834A1A6000229A80844B1B682E
:1046700013F0010F09D1824B01221A60814B7C4A51
:104680001A60814A1A6000229A80804B1B6813F0DE
:10469000010F08D101227D4B1A607D4B74491960CE
:1046A0007C4919601A717C4B1B6813F0010F08D10B
:1046B0000122794B1A60794B6D491960754919606F
:1046C0001A71774B1B6813F0010F09D1744B01224B
:1046D0001A60744B664A1A60734A1A6002221A7191
:1046E000724B1B6813F0010F09D1704B01221A6045
:1046F0006F4B5F4A1A606F4A1A6002221A716E4B42
:104700001B6813F0010F0AD16B4B01221A606B4B2F
:10471000574A1A60574A1A604FF496729A80684B4B
:104720001B6813F0010F09D1654B01221A60654B1C
:104730004F4A1A604F4A1A6000229A80624B1B68E7
:1047400013F0010F09D1604B01221A605F4B484AF8
:104750001A605F4A1A6000225A605E4B1B6813F0B1
:10476000010F09D15B4B01221A605B4B404A1A6072
:10477000574A1A6000225A60584B1B6813F0010F09
:1047800009D1564B01221A60554B394A1A60554AD5
:104790001A6000221A71544B1B6813F0010F09D1E3
:1047A000514B01221A60514B314A1A604D4A1A602E
:1047B00000221A714E4B1B6813F0010F09D14C4BAC
:1047C00001221A604B4B2A4A1A604B4A1A60002297
:1047D0001A714A4B1B6813F0010F09D1474B012294
:1047E0001A60474B224A1A60464A1A6000225A60F1
:1047F000454B1B6813F0010F09D1434B01221A608E
:10480000424B1B4A1A60424A1A6000221A71414BFD
:104810001B6813F0010F09D13E4B01221A603E4B79
:10482000134A1A603A4A1A6000221A713B4B1B68FD
:1048300013F0010F09D1394B01221A60384B0C4A91
:104840001A600C4A1A6000229A80364B1B6813F0DB
:10485000010F6FD1334B01221A60334B044A1A60A7
:1048600064E000BF68100024641000247029002454
:10487000B8C70608E0C706086010002468290024AD
:104880005C10002460290024F4C706085810002496
:104890005829002408C80608541000245029002470
:1048A00050100024482900241CC806084C1000247D
:1048B0004029002430C80608481000243829002464
:1048C000441000243029002440100024282900240A
:1048D00044C806083C100024202900243810002475
:1048E0001829002458C80608341000241029002470
:1048F00030100024082900246CC806082C1000245D
:104900000029002480C8060828100024F828002464
:1049100094C8060824100024F02800242010002445
:10492000E82800241C100024E02800248D4A1A6086
:1049300000229A808C4B1B6813F0010F09D18A4B1F
:1049400001221A60894B8A4A1A60864A1A6000223C
:104950009A80884B1B6813F0010F09D1854B012207
:104960001A60854B824A1A607E4A1A6000229A8039
:10497000824B1B6813F0010F09D1804B01221A6092
:104980007F4B7B4A1A60774A1A6000229A807D4BDF
:104990001B6813F0010F09D17A4B01221A607A4B80
:1049A000734A1A606F4A1A6000229A80774B1B681C
:1049B00013F0010F09D1754B01221A60744B6C4A38
:1049C0001A60684A1A6000229A80724B1B6813F0C2
:1049D000010F09D16F4B01221A606F4B644A1A60B4
:1049E000604A1A6000229A806C4B1B6813F0010F1A
:1049F00009D16A4B01221A60694B5D4A1A60594A13
:104A00001A6000229A80674B1B6813F0010F09D1CE
:104A1000644B01221A60644B554A1A60634A1A605B
:104A200000225A60624B1B6813F0010F09D1604BE2
:104A300001221A605F4B4E4A1A605C4A1A600022DB
:104A40005A605D4B1B6813F0010F09D15A4B0122CC
:104A50001A605A4B464A1A60594A1A6000221A7163
:104A6000584B1B6813F0010F09D1564B01221A60F5
:104A7000554B3F4A1A603B4A1A6000229A80534BBA
:104A80001B6813F0010F09D1504B01221A60504BE3
:104A9000374A1A60454A1A6000225A604D4B1B681B
:104AA00013F0010F09D14B4B01221A604A4B304AD7
:104AB0001A603E4A1A6000225A60484B1B6813F085
:104AC000010F09D1454B01221A60454B284A1A6053
:104AD000364A1A6000225A60424B1B6813F0010FDD
:104AE00008D101223F4B1A603F4B214919603F49D1
:104AF00019601A713E4B1B6813F0010F00F08A8099
:104B00003C4B1B6813F0010F00F092803A4B1B687E
:104B100013F0010F00F09B80384B1B6813F0010F5E
:104B200000F0A480364B1D6815F001057FF478ADC8
:104B300001221A6000238DF80430324902A8FDF7E3
:104B40000DFCB0E0304B01221A600022002329A89E
:104B5000FDF75AF92D4B064A1A602D4A1A60299A18
:104B60005A6065E5E0C7060818100024D82800241C
:104B7000B8C7060814100024D02800241010002400
:104B8000C82800240C100024C02800240810002489
:104B9000B828002404100024B028002400100024A9
:104BA000A8280024FC0F0024A028002444C80608DC
:104BB000F80F002498280024F40F002490280024E3
:104BC000A8C80608F00F002488280024EC0F002451
:104BD00080280024E80F002478280024E40F002413
:104BE00070280024E00F00246828002494C80608D8
:104BF000DC0F0024D80F0024D40F0024D00F002491
:104C0000CC0F002448C50608681000247829002429
:104C1000CCC706084A4B01221A604A4D4A49284629
:104C2000FDF79CFB494A4A4928461DF0EFFB67E720
:104C3000484B01221A6048480346402243F80C2B97
:104C400043608360414A45491DF0E0FB5EE7444B09
:104C500001221A6043480346402243F80C2B43606C
:104C600083603A4A3D491DF0D1FB55E73E4B012296
:104C70001A603E480346402243F80C2B4360836091
:104C8000324A36491DF0C2FB4CE70425C5F1040346
:104C900001AA02EB431401AB9C424ED0203C201DE4
:104CA000FDF7E6FAF7E701238DF8243026490AA834
:104CB000FDF754FB01E00325E8E702238DF84430BB
:104CC0002B4912A8FDF74AFB01E00225DEE703238A
:104CD0008DF8643027491AA8FDF740FB01E025460E
:104CE000D4E704238DF88430234922A8FDF736FB4E
:104CF00001AB2A9305232B932CAB13E906001F4825
:104D0000FEF716FA29AC03E0203C201DFDF7B0FAAF
:104D100001AB9C42F8D10D4A194918481DF076FBA9
:104D20007EE429AC01AB9C4204D0203C201DFDF761
:104D30009FFAF7E70425A9E7A8E71DF091FC00BF5B
:104D4000DC0F00244C28002440C506080000002485
:104D500051230008D80F002400280024E917000878
:104D6000D40F0024B4270024D00F00246827002487
:104D70004CC5060854C5060858C506086026002418
:104D80002531000808B54FF6FF710120FFF73EFC02
:104D900008BD0000012800D070474FF6FF7399420C
:104DA000FAD110B582B08F4B1B6813F0010F00F0E1
:104DB00068828D4B1B6813F0010F09D18A4B0122C9
:104DC0001A608A4B8A4A1A608A4A1A6000229A80BC
:104DD000894B1B6813F0010F09D1874B01221A6020
:104DE000864B834A1A60834A1A6000229A80844B59
:104DF0001B6813F0010F09D1814B01221A60814B0E
:104E00007B4A1A60804A1A6000229A807F4B1B6896
:104E100013F0010F08D101227C4B1A607C4B7449BE
:104E200019607C4919601A717B4B1B6813F0010FE4
:104E300008D10122784B1A60784B6D491960754989
:104E400019601A71764B1B6813F0010F09D1744B6E
:104E500001221A60734B664A1A60734A1A60022272
:104E60001A71724B1B6813F0010F09D16F4B0122AD
:104E70001A606F4B5E4A1A606E4A1A6002221A71FB
:104E80006D4B1B6813F0010F0AD16B4B01221A60A6
:104E90006A4B574A1A60574A1A604FF496729A80C2
:104EA000674B1B6813F0010F09D1654B01221A6093
:104EB000644B4F4A1A604F4A1A6000229A80624B34
:104EC0001B6813F0010F09D15F4B01221A605F4B81
:104ED000474A1A605E4A1A6000225A605D4B1B689E
:104EE00013F0010F09D15B4B01221A605A4B404A63
:104EF0001A60574A1A6000225A60584B1B6813F018
:104F0000010F09D1554B01221A60554B384A1A60DE
:104F1000544A1A6000221A71534B1B6813F0010F98
:104F200009D1514B01221A60504B314A1A604D4A47
:104F30001A6000221A714E4B1B6813F0010F09D141
:104F40004B4B01221A604B4B294A1A604A4A1A609D
:104F500000221A71494B1B6813F0010F09D1474B0E
:104F600001221A60464B224A1A60464A1A60002201
:104F70005A60454B1B6813F0010F09D1424B0122C7
:104F80001A60424B1A4A1A60414A1A6000221A718A
:104F9000404B1B6813F0010F09D13E4B01221A60F0
:104FA0003D4B134A1A603A4A1A6000221A713B4B71
:104FB0001B6813F0010F09D1384B01221A60384BDE
:104FC0000B4A1A600B4A1A6000229A80354B1B6804
:104FD00013F0010F6ED1334B01221A60324B044A99
:104FE0001A6063E068100024641000247029002413
:104FF000B8C70608E0C70608601000246829002426
:105000005C10002460290024F4C70608581000240E
:105010005829002408C806085410002450290024E8
:1050200050100024482900241CC806084C100024F5
:105030004029002430C806084810002438290024DC
:105040004410002430290024401000242829002482
:1050500044C806083C1000242029002438100024ED
:105060001829002458C806083410002410290024E8
:1050700030100024082900246CC806082C100024D5
:105080000029002480C8060828100024F8280024DD
:1050900094C8060824100024F028002420100024BE
:1050A000E82800241C100024E0280024844A1A6008
:1050B00000229A80834B1B6813F0010F09D1814BAA
:1050C00001221A60804B814A1A607D4A1A600022D0
:1050D0009A807F4B1B6813F0010F09D17C4B012292
:1050E0001A607C4B794A1A60754A1A6000229A80CD
:1050F000794B1B6813F0010F09D1774B01221A601D
:10510000764B724A1A606E4A1A6000229A80744B7B
:105110001B6813F0010F09D1714B01221A60714B0A
:105120006A4A1A60664A1A6000229A806E4B1B68AF
:1051300013F0010F09D16C4B01221A606B4B634ACB
:105140001A605F4A1A6000229A80694B1B6813F04C
:10515000010F09D1664B01221A60664B5B4A1A6047
:10516000574A1A6000229A80634B1B6813F0010FA4
:1051700009D1614B01221A60604B544A1A60504AAF
:105180001A6000229A805E4B1B6813F0010F09D150
:105190005B4B01221A605B4B4C4A1A605A4A1A60F8
:1051A00000225A60594B1B6813F0010F09D1574B6D
:1051B00001221A60564B454A1A60534A1A6000226F
:1051C0005A60544B1B6813F0010F09D1514B012257
:1051D0001A60514B3D4A1A60504A1A6000221A71F7
:1051E0004F4B1B6813F0010F09D14D4B01221A6080
:1051F0004C4B364A1A60324A1A6000229A804A4B57
:105200001B6813F0010F09D1474B01221A60474B6D
:105210002E4A1A603C4A1A6000225A60444B1B68AE
:1052200013F0010F09D1424B01221A60414B274A6A
:105230001A60354A1A6000225A603F4B1B6813F00F
:10524000010F09D13C4B01221A603C4B1F4A1A60E6
:105250002D4A1A6000225A60394B1B6813F0010F67
:1052600008D10122364B1A60364B1849196036496D
:1052700019601A71354B1B6813F0010F11D002B081
:1052800010BD334B01221A600022002301A8FCF755
:10529000BBFD304B0D4A1A602F4A1A60019A5A60C2
:1052A00087E52A4B01221A602C4C2D492046FDF738
:1052B00055F82C4A2C4920461DF0A8F8DFE700BF1E
:1052C000E0C7060818100024D8280024B8C706082C
:1052D00014100024D028002410100024C828002412
:1052E0000C100024C028002408100024B828002432
:1052F00004100024B028002400100024A828002452
:10530000FC0F0024A028002444C80608F80F00243D
:1053100098280024F40F002490280024A8C8060828
:10532000F00F002488280024EC0F0024802800249B
:10533000E80F002478280024E40F002470280024BB
:10534000E00F00246828002494C80608DC0F00241D
:105350006810002478290024CCC706084C280024B3
:1053600040C50608000000245123000808B54FF688
:10537000FF710120FFF70EFD08BD0B780370704729
:1053800010B5044680686368C31A22689A4205D043
:10539000FFF7F3FFA3680133A36010BD034B044A7A
:1053A00040F2B311034853F0B7F800BF2CCB060806
:1053B00044CB0608B8CB060800B5ADF67C0D4023FB
:1053C000CDF82C380DF63803CDF83038CDF8343818
:1053D00000238DF8043004E09DF8043001338DF88B
:1053E00004309DF804303F2B05D801A90DF62C00A0
:1053F000FFF7C6FFF0E713490DF58360FEF7A7FF3F
:10540000DDF8241401A8FEF7A2FF002301AA194623
:105410001846FCF784FC01A8FCF72AFF4FF47A70C9
:105420000BF094FAECE701A8FCF722FF0DF583607E
:10543000FCF71EFFDDF83038CDF834381DF010F9D8
:10544000F4E7F7E71CCC0608012800D0704730B518
:10545000ADB004464FF6FF73994201D02DB030BD78
:105460008F4B1B6813F0010F00F08A828D4B1B6875
:1054700013F0010F09D18B4B01221A608A4B8B4A22
:105480001A608B4A1A6000229A808A4B1B6813F0BC
:10549000010F09D1874B01221A60874B834A1A609A
:1054A000834A1A6000229A80844B1B6813F0010F14
:1054B00009D1824B01221A60814B7C4A1A60814AD1
:1054C0001A6000229A80804B1B6813F0010F08D1EC
:1054D00001227D4B1A607D4B744919607C4919602B
:1054E0001A717C4B1B6813F0010F08D10122794B14
:1054F0001A60794B6D491960754919601A71774BBB
:105500001B6813F0010F09D1744B01221A60744B10
:10551000664A1A60734A1A6002221A71724B1B683B
:1055200013F0010F09D1704B01221A606F4B5F4AD3
:105530001A606F4A1A6002221A716E4B1B6813F0D0
:10554000010F0AD16B4B01221A606B4B574A1A604C
:10555000574A1A604FF496729A80684B1B6813F092
:10556000010F09D1654B01221A60654B4F4A1A6041
:105570004F4A1A6000229A80624B1B6813F0010F99
:1055800009D1604B01221A605F4B484A1A605F4A9A
:105590001A6000225A605E4B1B6813F0010F09D19C
:1055A0005B4B01221A605B4B404A1A60574A1A60F3
:1055B00000225A60584B1B6813F0010F09D1564B5B
:1055C00001221A60554B394A1A60554A1A60002266
:1055D0001A71544B1B6813F0010F09D1514B012272
:1055E0001A60514B314A1A604D4A1A6000221A71F2
:1055F0004E4B1B6813F0010F09D14C4B01221A606E
:105600004B4B2A4A1A604B4A1A6000221A714A4BC5
:105610001B6813F0010F09D1474B01221A60474B59
:10562000224A1A60464A1A6000225A60454B1B689B
:1056300013F0010F09D1434B01221A60424B1B4A60
:105640001A60424A1A6000221A71414B1B6813F01B
:10565000010F09D13E4B01221A603E4B134A1A60DA
:105660003A4A1A6000221A713B4B1B6813F0010F73
:1056700009D1394B01221A60384B0C4A1A600C4A86
:105680001A6000229A80364B1B6813F0010F6FD10D
:10569000334B01221A60334B044A1A6064E000BFA6
:1056A000681000246410002470290024B8C706087C
:1056B000E0C7060860100024682900245C1000245C
:1056C00060290024F4C70608581000245829002433
:1056D00008C8060854100024502900245010002443
:1056E000482900241CC806084C1000244029002426
:1056F00030C806084810002438290024441000242B
:1057000030290024401000242829002444C8060819
:105710003C100024202900243810002418290024DB
:1057200058C8060834100024102900243010002422
:10573000082900246CC806082C1000240029002425
:1057400080C8060828100024F828002494C80608F9
:1057500024100024F028002420100024E82800242D
:105760001C100024E02800248D4A1A6000229A8030
:105770008C4B1B6813F0010F09D18A4B01221A6070
:10578000894B8A4A1A60864A1A6000229A80884B9E
:105790001B6813F0010F09D1854B01221A60854B5C
:1057A000824A1A607E4A1A6000229A80824B1B68E5
:1057B00013F0010F09D1804B01221A607F4B7B4A05
:1057C0001A60774A1A6000229A807D4B1B6813F09A
:1057D000010F09D17A4B01221A607A4B734A1A6081
:1057E0006F4A1A6000229A80774B1B6813F0010FF2
:1057F00009D1754B01221A60744B6C4A1A60684AD1
:105800001A6000229A80724B1B6813F0010F09D1B5
:105810006F4B01221A606F4B644A1A60604A1A602B
:1058200000229A806C4B1B6813F0010F09D16A4B60
:1058300001221A60694B5D4A1A60594A1A600022B7
:105840009A80674B1B6813F0010F09D1644B01224A
:105850001A60644B554A1A60634A1A6000225A6003
:10586000624B1B6813F0010F09D1604B01221A60D3
:105870005F4B4E4A1A605C4A1A6000225A605D4BC8
:105880001B6813F0010F09D15A4B01221A605A4BC1
:10589000464A1A60594A1A6000221A71584B1B680E
:1058A00013F0010F09D1564B01221A60554B3F4AA4
:1058B0001A603B4A1A6000229A80534B1B6813F00F
:1058C000010F09D1504B01221A60504B374A1A6020
:1058D000454A1A6000225A604D4B1B6813F0010FB5
:1058E00009D14B4B01221A604A4B304A1A603E4A9A
:1058F0001A6000225A60484B1B6813F0010F09D14F
:10590000454B01221A60454B284A1A60364A1A60F4
:1059100000225A60424B1B6813F0010F08D101228C
:105920003F4B1A603F4B214919603F4919601A717A
:105930003E4B1B6813F0010F00F08A803C4B1B6844
:1059400013F0010F00F092803A4B1B6813F0010F27
:1059500000F09B80384B1B6813F0010F00F0A4800F
:10596000364B1D6815F001057FF478AD01221A60F1
:1059700000238DF80430324902A8FCF7EFFCB0E0B8
:10598000304B01221A600022002329A8FCF73CFAC0
:105990002D4B064A1A602D4A1A60299A5A6065E50D
:1059A000E0C7060818100024D8280024B8C7060845
:1059B00014100024D028002410100024C82800242B
:1059C0000C100024C028002408100024B82800244B
:1059D00004100024B028002400100024A82800246B
:1059E000FC0F0024A028002444C80608F80F002457
:1059F00098280024F40F002490280024A8C8060842
:105A0000F00F002488280024EC0F002480280024B4
:105A1000E80F002478280024E40F002470280024D4
:105A2000E00F00246828002494C80608DC0F002436
:105A3000D80F0024D40F0024D00F0024CC0F002452
:105A400048C506086810002478290024CCC7060839
:105A50004A4B01221A604A4D4A492846FCF77EFC0F
:105A6000494A4A4928461CF0D1FC67E7484B0122C5
:105A70001A6048480346402243F80C2B4360836079
:105A8000414A45491CF0C2FC5EE7444B01221A60C2
:105A900043480346402243F80C2B436083603A4A54
:105AA0003D491CF0B3FC55E73E4B01221A603E48CD
:105AB0000346402243F80C2B43608360324A364948
:105AC0001CF0A4FC4CE70425C5F1040301AA02EB79
:105AD000431401AB9C424ED0203C201DFCF7C8FB78
:105AE000F7E701238DF8243026490AA8FCF736FC95
