:020000040800F2
:1000000000001024B92D01083D2C01083F2C0108E7
:10001000412C0108432C0108452C01080000000078
:10002000000000000000000000000000712F010827
:10003000472C01080000000011300108492C01087C
:10004000092E0108092E0108092E0108092E0108B0
:10005000092E0108092E0108092E0108092E0108A0
:10006000092E0108092E0108092E0108092E010890
:10007000092E0108092E0108092E0108092E010880
:10008000092E0108092E0108092E0108092E010870
:10009000092E0108092E0108092E0108092E010860
:1000A000092E0108092E0108092E0108092E010850
:1000B000092E0108092E0108092E0108092E010840
:1000C000092E0108092E0108092E0108092E010830
:1000D000092E0108092E0108092E0108092E010820
:1000E000092E0108092E0108092E0108092E010810
:1000F000092E0108092E0108092E0108092E010800
:10010000092E0108092E0108092E0108092E0108EF
:10011000092E0108092E0108092E0108092E0108DF
:10012000092E0108092E0108092E0108092E0108CF
:10013000092E01080000000000000000092E01083F
:10014000092E0108092E0108092E0108092E0108AF
:10015000092E0108092E0108092E0108092E01089F
:10016000092E0108092E0108092E0108092E01088F
:10017000092E0108092E0108092E010800000000BF
:10018000092E0108092E0108092E0108092E01086F
:10019000092E0108092E0108092E0108092E01085F
:1001A000092E0108092E0108092E0108092E01084F
:1001B000092E0108092E0108092E0108092E01083F
:1001C000092E0108092E01080000000000000000AF
:1001D0000000000000000000092E010800000000DF
:1001E000000000000000000000000000000000000F
:1001F0000000000000000000092E0108092E01087F
:10020000092E0108092E010800000000092E01082E
:10021000092E0108092E0108092E0108092E0108DE
:10022000092E0108092E0108092E0108000000000E
:10023000092E0108092E010800000000092E0108FE
:10024000092E0108092E0108092E0108092E0108AE
:10025000092E0108092E0108092E0108092E01089E
:10026000092E0108092E0108092E0108092E01088E
:10027000092E0108092E0108092E010800000000BE
:10028000092E0108092E010800000000092E0108AE
:1002900000000000092E0108092E010800000000DE
:0C02A00000000000092E0108092E0108D2
:1002C0000348044B834202D0034B03B118477047E5
:1002D000C80A0024C80A0024000000000548064996
:1002E0000B1AD90F01EBA301491002D0034B03B144
:1002F00018477047C80A0024C80A002400000000FC
:1003000010B5064C237843B9FFF7DAFF044B13B15D
:100310000448AFF300800123237010BDC80A0024F5
:10032000000000008C0D040808B5044B1BB1044903
:100330000448AFF30080BDE80840CFE700000000AC
:10034000CC0A00248C0D040881F0004102E000BFBB
:1003500083F0004330B54FEA41044FEA430594EA85
:10036000050F08BF90EA020F1FBF54EA000C55EAC0
:10037000020C7FEA645C7FEA655C00F0E2804FEA91
:100380005454D4EB5555B8BF6D420CDD2C4480EA73
:10039000020281EA030382EA000083EA010180EAA3
:1003A000020281EA0303362D88BF30BD11F0004FF1
:1003B0004FEA01314FF4801C4CEA113102D0404227
:1003C00061EB410113F0004F4FEA03334CEA133362
:1003D00002D0524263EB430394EA050F00F0A7807A
:1003E000A4F10104D5F1200E0DDB02FA0EFC22FA75
:1003F00005F2801841F1000103FA0EF2801843FA69
:1004000005F359410EE0A5F120050EF1200E012A59
:1004100003FA0EFC28BF4CF0020C43FA05F3C01897
:1004200051EBE37101F0004507D54FF0000EDCF110
:10043000000C7EEB00006EEB0101B1F5801F1BD3B9
:10044000B1F5001F0CD349085FEA30004FEA3C0CBD
:1004500004F101044FEA445212F5800F80F09A80B3
:10046000BCF1004F08BF5FEA500C50F1000041EBB7
:10047000045141EA050130BD5FEA4C0C404141EBBB
:100480000101013C28BFB1F5801FE9D291F0000FB6
:1004900004BF01460020B1FA81F308BF2033A3F165
:1004A0000B03B3F120020CDA0C3208DD02F1140C5C
:1004B000C2F10C0201FA0CF021FA02F10CE002F197
:1004C0001402D8BFC2F1200C01FA02F120FA0CFC90
:1004D000DCBF41EA0C019040E41AA2BF01EB0451D9
:1004E000294330BD6FEA04041F3C1CDA0C340EDCD7
:1004F00004F11404C4F1200220FA04F001FA02F31A
:1005000040EA030021FA04F345EA030130BDC4F1D7
:100510000C04C4F1200220FA02F001FA04F340EACC
:100520000300294630BD21FA04F0294630BD94F07D
:10053000000F83F4801306BF81F480110134013D64
:100540004EE77FEA645C18BF7FEA655C29D094EAD5
:10055000050F08BF90EA020F05D054EA000C04BF53
:100560001946104630BD91EA030F1EBF002100203E
:1005700030BD5FEA545C05D14000494128BF41F0DD
:10058000004130BD14F580043CBF01F5801130BD41
:1005900001F0004545F0FE4141F470014FF00000CC
:1005A00030BD7FEA645C1ABF194610467FEA655C7D
:1005B0001CBF0B46024650EA013406BF52EA03351F
:1005C00091EA030F41F4002130BD00BF90F0000F0D
:1005D00004BF0021704730B54FF4806404F1320449
:1005E0004FF000054FF0000150E700BF90F0000F02
:1005F00004BF0021704730B54FF4806404F1320429
:1006000010F0004548BF40424FF000013EE700BFF8
:1006100042004FEAE2014FEA31014FEA02701FBF88
:1006200012F07F4393F07F4F81F06051704732F0BA
:100630007F4208BF704793F07F4F04BF41F4002111
:10064000704730B54FF4607401F0004521F000416F
:100650001CE700BF50EA010208BF704730B54FF0F9
:1006600000050AE050EA010208BF704730B511F0FA
:10067000004502D5404261EB41014FF4806404F132
:1006800032045FEA915C3FF4D8AE4FF003025FEAB8
:10069000DC0C18BF03325FEADC0C18BF033202EB3C
:1006A000DC02C2F1200300FA03FC20FA02F001FA96
:1006B00003FE40EA0E0021FA02F11444BDE600BF39
:1006C0004FF0FF3C06E000BF4FF0010C02E000BF1E
:1006D0004FF0010C4DF804CD4FEA410C7FEA6C5C01
:1006E0004FEA430C18BF7FEA6C5C1BD001B050EAA4
:1006F000410C0CBF52EA430C91EA030F02BF90EA8F
:10070000020F0020704710F1000F91EA030F58BF4D
:10071000994208BF90422CBFD8176FEAE37040F0AF
:10072000010070474FEA410C7FEA6C5C02D150EA4D
:10073000013C07D14FEA430C7FEA6C5CD6D152EA08
:10074000033CD3D05DF8040B704700BF84461046CD
:1007500062468C461946634600E000BF01B5FFF7CC
:10076000B7FF002848BF10F1000F01BD4DF808ED9C
:10077000FFF7F4FF0CBF012000205DF808FB00BF6D
:100780004DF808EDFFF7EAFF34BF012000205DF8C7
:1007900008FB00BF4DF808EDFFF7E0FF94BF012014
:1007A00000205DF808FB00BF4DF808EDFFF7CEFF15
:1007B00094BF012000205DF808FB00BF4DF808ED54
:1007C000FFF7C4FF34BF012000205DF808FB00BF25
:1007D00053B94AB9002908BF00281CBF4FF0FF31A8
:1007E0004FF0FF3001F0DEB8ADF1080C6DE904CE3A
:1007F00000F006F8DDF804E0DDE9022304B07047FC
:100800002DE9F047089D04468E46002B4DD18A42C3
:10081000944669D9B2FA82F252B101FA02F3C2F1F6
:10082000200120FA01F10CFA02FC41EA030E944087
:100830004FEA1C48210CBEFBF8F61FFA8CF708FBA8
:1008400016E341EA034306FB07F199420AD91CEB80
:10085000030306F1FF3080F01F81994240F21C81B2
:10086000023E63445B1AA4B2B3FBF8F008FB1033FA
:1008700044EA034400FB07F7A7420AD91CEB04042F
:1008800000F1FF3380F00A81A74240F207816444FF
:10089000023840EA0640E41B00261DB1D440002384
:1008A000C5E900433146BDE8F0878B4209D9002DE8
:1008B00000F0EF800026C5E9000130463146BDE872
:1008C000F087B3FA83F6002E4AD18B4202D38242DC
:1008D00000F2F980841A61EB030301209E46002D8B
:1008E000E0D0C5E9004EDDE702B9FFDEB2FA82F2E0
:1008F000002A40F09280A1EB0C014FEA1C471FFA3E
:100900008CFE0126200CB1FBF7F307FB131140EA24
:1009100001410EFB03F0884208D91CEB010103F1F1
:10092000FF3802D2884200F2CB804346091AA4B2B3
:10093000B1FBF7F007FB101144EA01440EFB00FE87
:10094000A64508D91CEB040400F1FF3102D2A645EC
:1009500000F2BB800846A4EB0E0440EA03409CE78B
:10096000C6F12007B34022FA07FC4CEA030C20FA38
:1009700007F401FA06F31C43F9404FEA1C4900FA58
:1009800006F3B1FBF9F8200C1FFA8CFE09FB1811D5
:1009900040EA014108FB0EF0884202FA06F20BD948
:1009A0001CEB010108F1FF3A80F08880884240F298
:1009B0008580A8F102086144091AA4B2B1FBF9F0DC
:1009C00009FB101144EA014100FB0EFE8E4508D9D7
:1009D0001CEB010100F1FF346CD28E456AD902385C
:1009E000614440EA0840A0FB0294A1EB0E01A14241
:1009F000C846A64656D353D05DB1B3EB080261EBAF
:100A00000E0101FA07F722FA06F3F1401F43C5E988
:100A1000007100263146BDE8F087C2F12003D840BE
:100A20000CFA02FC21FA03F3914001434FEA1C4700
:100A30001FFA8CFEB3FBF7F007FB10360B0C43EAF2
:100A4000064300FB0EF69E4204FA02F408D91CEBA2
:100A5000030300F1FF382FD29E422DD902386344A0
:100A60009B1B89B2B3FBF7F607FB163341EA034140
:100A700006FB0EF38B4208D91CEB010106F1FF388F
:100A800016D28B4214D9023E6144C91A46EA004686
:100A900038E72E46284605E70646E3E61846F8E618
:100AA0004B45A9D2B9EB020864EB0C0E0138A3E761
:100AB0004646EAE7204694E74046D1E7D0467BE742
:100AC000023B614432E7304609E76444023842E7BA
:100AD00003685A004CBF43F0004323F0004318441E
:100AE000704700BF2DE9F84329B34F1E0446154651
:100AF0003E464FF0000808EB060101EBD1714910AA
:100B000004EBC1094846FFF7E3FF0346C80008307D
:100B10008F42204409D0AB4209D8FFF7D9FF0138F2
:100B2000A8420AD201F10108E5E7AB4205D98845A0
:100B300001D04E1EDFE74FF000094846BDE8F883BC
:100B4000012807D0022807D0044B00280CBF184604
:100B50000020704702487047024870471912000889
:100B60001D1200082112000830B5234B83B0044643
:100B70008D1E3BB301A92846AFF30080E8B101996F
:100B80002A46FFF7AFFF0146B8B1FFF7A1FF4B6858
:100B9000A064012B2CD0002B01F1040024DBFFF713
:100BA00097FF0023C4E913030368002B11DBFFF751
:100BB0008FFF2061002003B030BD00230920236196
:100BC00003B030BD0D4B0E49C91AC910184601912A
:100BD000D6E7C3F30360FFF7B3FF0028206114BF1B
:100BE0000020092003B030BD0123C4E91303DBE773
:100BF000002323610520DEE700000000EC810408EB
:100C0000949404080368DA0710B5044606D49B07D9
:100C100000F1480009D500F05BFC2368590709D5AD
:100C20001A070ED5DB0613D510BD00F049FC23686A
:100C30005907F5D404F1D00000F052FC23681A07DC
:100C4000F0D404F5A87000F053FC2368DB06EBD465
:100C500004F5E870BDE8104000F08EBC0920704734
:100C60000346006800B11844704700BF704700BFDA
:100C700070B504460E46316C2046FFF775FF0546F9
:100C800088B9326C62612369324621460120984757
:100C90000828F0D0072806D12846316CFFF7E6FF78
:100CA000301D00F001FC00F07FFE00BF2DE9F04791
:100CB0000D1DD0F80C80D0F81890074614460FCDC3
:100CC000ADF5727D0DF10C0CACE80F000FCDACE86A
:100CD0000F000FCDACE80F0095E80F0002AE4FF00B
:100CE000000E8CE80F00C6F800E020E0336C7B615A
:100CF0004FF4F07231467AA802F024FB3B697AAADD
:100D0000394650469847889B73642146CDE900696F
:100D100005463B463A460120C0470446E0B94FF439
:100D2000F0727AA9304602F00DFB082D1AD1316C11
:100D30003846FFF719FF09345FFA84FA05460028A0
:100D4000D4D0B36B73643A46CDE900693B464AF0B0
:100D500010010120C04700B1092528460DF5727D1C
:100D6000BDE8F087072DF7D12046316CFFF77EFFF5
:100D700003A800F099FB00BF406C7047F0B5CB6B47
:100D80000B6401F1040C0E460546BCE80F00F9B0F7
:100D900001AC0FC4BCE80F000FC4BCE80F000FC4C7
:100DA0009CE80F004FF0FF3784E80F00009706E043
:100DB0002B696A46294698470828044608D11099A5
:100DC0002846FFF7D1FE0028F2D0092079B0F0BD07
:100DD0006846FFF717FF062CF7D131462846FFF784
:100DE00047FF00BFC160D96B8261196400221946B8
:100DF0005CE700BF70B5C66843690B64AEB90369B0
:100E00000A4604460D46014602209847072805D0A9
:100E100008280FD129462046FFF72AFF3046296CC3
:100E2000FFF724FF281D00F03FFB0122FFF73EFFE4
:100E300000F0BAFD00F0B8FDC2681AB1CA6B0A64CE
:100E4000002233E79AE700BF704700BF836801467E
:100E50000BB1012018477047012912D009D873B986
:100E60000F2A0CD800EB820218465368009A1360D0
:100E700070470339012994BF0120022070470220E6
:100E800070470846704700BF00B585B00A4600238A
:100E900003A900911946FFF7DFFF039805B05DF83D
:100EA00004FB00BF012912D009D873B90F2A0CD84E
:100EB00000EB8200009A12684260184670470339BE
:100EC000012994BF01200220704702207047084684
:100ED000704700BF10B584B0002303AC03920094A8
:100EE0000A461946FFF7DEFF04B010BD70B5D36B9C
:100EF000136402F1040C05460C46BCE80F00ADF586
:100F00000E7D0DF15C0EAEE80F00BCE80F00AEE800
:100F10000F00BCE80F00AEE80F009CE80F004FF098
:100F2000FF368EE80F00169610E0FFF7D3FF21463C
:100F300016A8A847034616AA6946082083B9049B49
:100F40009847052806460CD0092809D026996846F6
:100F5000FFF70AFE03466A460C2116A8002BE4D0D0
:100F6000092616A8FFF74EFE30460DF50E7D70BD22
:100F70002DE9F04FCC6C89B01E4654F8043B069422
:100F80000D46174600F00308002E79D01A0C1B04FA
:100F900005938DF81D200223D2B204EB82048DF854
:100FA0001C302B6DB8F1020F08BFAC6B13F00103BE
:100FB0000CD005A9384600F079FB18B9082009B013
:100FC000BDE8F08F092009B0BDE8F08FD4F800A08B
:100FD000BAF1000FEDD0019300F008030293022E46
:100FE0004AD0B4F800A0B4F802900434AB6C29F0F5
:100FF000010B0F2138469B44FFF746FF834539D844
:101000002AF001039B44834594BF002001204FEA4E
:10101000490303F002030AF0010A43EA0A03012B21
:1010200049D0022B32D0002BCCD1B8F1000F02D026
:10103000002840F0CD800434D4F800A0BAF1000FAD
:10104000CDD105A9384600F031FB0028BAD1019B6B
:10105000002BB3D00F213846FFF716FF0E210246B2
:101060003846FFF737FF38466A4A0F21FFF732FF4D
:101070000720A8E70020CAE7D4F804900834B5E7B1
:101080001B0205930323ADF81C308AE7236823F085
:10109000004BB8F1000F45D128B1029A002A5CD06C
:1010A000BBF1000F74D0002B00DA04340BF1010BFC
:1010B00004EB8B04C0E7B8F1000F19D1B0B163683D
:1010C0002268991C4FEAD2723FF47CAF05F15801B7
:1010D0000133049100F09080201DFFF7C1FD04ABA7
:1010E000014628463CF0B0FF00285BD10834A3E756
:1010F0000D213846D5F82090FFF7C6FE8145F5D181
:10110000AB6A9C42F2D12046FFF7E2FC0F21024677
:101110003846FFF7DFFE38462A460021FFF7DAFEA1
:10112000072050E70D213846D5F82090FFF7ACFE98
:10113000814501D02368B6E7AB6A9C42FAD104230B
:101140000022C5E90B23E318C5F828B06B632368B8
:10115000002B59DB01230193A8E705F15803CDF8D3
:101160000C8004F1040AB04691461E460EE050463B
:101170000496FFF775FD0022014604AB284609F1ED
:1011800001090AF1040A3CF05FFFE0B9D945EED14C
:101190000D213846FFF778FE049BAC62C5E90803D1
:1011A000062010E781460D213846FFF76DFEB9F1A4
:1011B000020F286225D12B46049A43F82C2F6B622C
:1011C000AC620620FFE646462368DDF80C806AE73D
:1011D0002046FFF77DFC04340246AC6328461446E3
:1011E0003CF08CFF00283FF4EDAE384622460F213C
:1011F000FFF770FE0720E6E60D213846FFF744FEB4
:101200002862049B6B62DBE70BF1010004EB8000BA
:101210007AE700BF6DE203080023A9E60123A7E6F1
:101220000223A5E62DE9F0430646C3B015461C4649
:10123000042900F2BF80DFE801F09E57BD2D0300B6
:10124000002C40F0B780102A00F2B4800368D80662
:1012500000F1F98020AF384600F098F9B46B3946B8
:1012600000234FF0010C0CFA03F22A42204603F14E
:10127000010303D050F8042B0A600446042B01F14B
:101280000401F0D13846B46300F076F9002043B091
:10129000BDE8F083032C40F08D8094B204EB124340
:1012A000102B4FEA124500F2858003681F0700F1FA
:1012B000D28020AF384600F03DF9B26B07EBC50194
:1012C00054B10B46D01A01EBC401E4001D5843F899
:1012D000045B8B42FAD122443846B26300F008F92D
:1012E000002043B0BDE8F083012C4FEA124895B2CC
:1012F0005CD0052C5ED108EB0509B9F1200F59D857
:10130000B8F10F0F79D9A946002D40F08A80B36B50
:101310006DB320AF4FF0000907EBC807043F03EBA4
:10132000C50553F8041B47F8041FAB42F9D1B9F1C6
:10133000000F0FD06F464146102938BF102107EB30
:10134000C101843903EBC90553F8040B41F8040FBC
:10135000AB42F9D1012C00F08680B8F10F0FB563D4
:1013600047D9B9F1000F02D0684600F0B9F8002063
:1013700043B0BDE8F083ECB9806B23461FFA82FCD2
:101380000124371D04FA03F212EA0C0F014604D0BF
:1013900051F8042B47F8232008460133102BF1D1D4
:1013A00015F40055E3D1B063284604E008EB0503CB
:1013B000102B03D9022043B0BDE8F083B8F10F0F22
:1013C000F8D83368DA0706D5304623F0030340F82F
:1013D000483B00F079F820AF384600F075F8B36B61
:1013E000002D97D11D460435B563384600F068F8E6
:1013F000BDE720A800F06CF8B3E7B9F1100F40D9B1
:10140000A9F110093368D90708D523F00103304644
:1014100043F0020340F8483B00F05EF8B9F1000FDA
:1014200032D033685A0720D4B8F10F0F25D96F4650
:101430003846C8F1100500F057F8002DB36B7FF760
:101440007AAF20AF68E723F01003336006F5E87049
:1014500000F09CF8FEE623F00803036000F5A87096
:1014600000F068F825E720AFBDE7304623F004031D
:1014700040F8D03B00F038F8D6E720A800F02CF870
:10148000D5E74FF00009BDE7B8F10F0F3FF63FAFCA
:1014900020AF384600F020F8B36B002D7FF43AAF50
:1014A000384600F015F862E700F1340191E83800A1
:1014B0009C46A6464CF8045D90E8FF0FE54600BD4B
:1014C00090EC210B704700BF80EC210B704700BFF0
:1014D00090EC200B704700BF80EC200B704700BFE2
:1014E000D0EC200B704700BFC0EC200B704700BF52
:1014F000F0EC0201F0EC0211F0EC0221F0EC023110
:10150000F0EC0241F0EC0251F0EC0261F0EC0271FF
:10151000F0EC0281F0EC0291F0EC02A1F0EC02B1EF
:10152000F0EC02C1F0EC02D1F0EC02E1F0EC02F1DF
:10153000704700BFE0EC0201E0EC0211E0EC022198
:10154000E0EC0231E0EC0241E0EC0251E0EC02613F
:10155000E0EC0271E0EC0281E0EC0291E0EC02A12F
:10156000E0EC02B1E0EC02C1E0EC02D1E0EC02E11F
:10157000E0EC02F1704700BFB0FC0181B0FC0191CA
:10158000B0FC01A1B0FC01B1704700BFA0FC01811B
:10159000A0FC0191A0FC01A1A0FC01B1704700BF1B
:1015A000EC4600B52DE900502DE9FF1F4FF0000378
:1015B0002DE90C0001A9FFF7E1FBDDF840E012B0D6
:1015C000704700BFEC4600B52DE900502DE9FF1F24
:1015D0004FF000032DE90C0001A9FFF70BFCDDF82B
:1015E00040E012B0704700BFEC4600B52DE9005056
:1015F0002DE9FF1F4FF000032DE90C0001A9FFF7B3
:101600001BFCDDF840E012B0704700BFEC4600B5AF
:101610002DE900502DE9FF1F4FF000032DE90C00CC
:1016200001ABFFF7DFFBDDF840E012B0704700BF11
:10163000EC4600B52DE900502DE9FF1F4FF00003E7
:101640002DE90C0001AAFFF751FCDDF840E012B0D3
:10165000704700BF027A03467AB9427AA2B1416864
:10166000013A10B44272086803220C1D1A72020279
:101670005C60000E10BC1A6070470068013A1A7274
:1016800002021A60000E7047B020704700B585B0A6
:10169000002303AA009219460C22FFF7DDFB0398F2
:1016A00005B05DF804FB00BFF0E700BF2DE9F04393
:1016B000054685B00E464FF000083046FFF7CAFFDA
:1016C000B028044600F0BA80070620D500F0F003E9
:1016D000802B4DD0902B36D0A02B60D0B02B74D067
:1016E000C02B00F08B8000F0F803D02B0BD100F062
:1016F00007020132052342F4002201212846FFF7A8
:1017000091FD0028D9D0092005B0BDE8F083830001
:10171000DBB21F1D0DF10C0900231946CDF8009016
:101720000D222846FFF798FB039BCDF8009060063A
:101730004CBFDF1BFF1800230D22194628460397D4
:10174000FFF7B0FBB9E700F00D030D2BDBD003AFC3
:10175000002300F00F02194600972846FFF77CFB94
:10176000002300970D2219462846FFF79BFBA4E7AC
:101770003046FFF76FFF24022043B0F5004FC2D080
:1017800004010023A2B219462846FFF74BFD0028AA
:10179000B9D114F4004F18BF4FF001088DE7C243D0
:1017A00002F007034FF47F621A41010702F47F62DF
:1017B0004FF0000348BF42F4804219462846FFF725
:1017C00031FD00283FF479AF9DE7B1283BD0B22826
:1017D00000F09380B32841D000F0FC03B42B92D0EA
:1017E00000F007020132012342F400221946284684
:1017F000FFF718FD00283FF460AF84E7C6284AD001
:10180000C72854D000F0F803C02B63D0C82868D094
:10181000C9287FF478AF3046FFF71CFF020300F0C1
:101820000F0002F4702201300243012105232846F3
:10183000FFF7F8FC00283FF440AF64E7B8F1000F71
:1018400018D0002060E73046FFF704FF024600286A
:101850003FF459AF10F0F003C8D054E73046FFF71B
:10186000F9FE020300F00F03013302F470221A4361
:101870000123BBE703AC43460E22414600942846B1
:10188000FFF7EAFA009443460F2241462846FFF745
:1018900009FB404638E73046FFF7DCFE020300F064
:1018A0000F03013302F470221A4303239EE73046EC
:1018B000FFF7D0FE024600283FF425AF10F0F003FA
:1018C0007FF421AF04212846FFF7ACFC00283FF449
:1018D000F4AE18E700F00F020132032342F4202295
:1018E00084E73046FFF7B6FE00F0F00200F00F0389
:1018F0001032013343EA023297E700230DF10C095D
:101900000D221946CDF800902846FFF7A5FA30467B
:10191000FFF7A0FE02064FF002040CD5039B00F077
:101920007F00A040184403903046FFF793FE030663
:1019300004F10704F2D4039BCDF8009000F07F027D
:10194000A24003F501731A440023039219460D22A5
:101950002846FFF7A7FAB0E610B5C26C536884B00A
:101960004FF0030C08321C0208461B0E01A901941B
:1019700002928DF80CC08DF80D30FFF797FE04B081
:1019800010BD00BF08B5FFF78FFE806C08BD00BF1B
:1019900008B5FFF789FEC06CC379023300EB830002
:1019A00008BD00BF704700BF08B5062002F07CF8F4
:1019B000012011F057F900BF002301461A461846CE
:1019C00008F07EBE431C1ED030B587B004AC034681
:1019D0000822002120468DF80B3001F0C9FD0B4A8A
:1019E0000B4B1068D3F8E450009401230DF10B0267
:1019F00003A9A847012802D8039807B030BD4FF0CB
:101A0000FF3007B030BD4FF0FF30704708000024B2
:101A10003804002413460A460146022008F050BE4E
:101A2000014B1868704700BF0800002470B50C46D1
:101A3000064600F065F8E36A054633B1E1693046D1
:101A400098470028B8BF4FF0FF35A3891B0619D46B
:101A5000216B41B104F14003994202D0304600F0BD
:101A600055FB00232363616C21B1304600F04EFB2F
:101A70000023636400F00AFA0023A38100F008FA4F
:101A8000284670BD2169304600F040FBE0E700BF0A
:101A9000B1B138B504460D4608B1836B4BB1B5F909
:101AA0000C300BB9002038BD29462046BDE838402F
:101AB000BCE700F0E7F9B5F90C30002BF2D0F3E702
:101AC00000207047C0B138B50C4B1D6804460DB1FD
:101AD000AB6B4BB1B4F90C300BB9002038BD2146CB
:101AE0002846BDE83840A1E7284600F0CBF9B4F914
:101AF0000C30002BF1D0F2E70020704708000024E2
:101B0000B1F90C202DE9F0410C461107804647D46D
:101B1000636842F40062002BA2815EDDA56A002D9D
:101B200058D00023D8F80060C8F8003093B212F4FF
:101B3000805256D10123E1694046A847431C67D033
:101B4000A389A56A5F0705D56368C01A236B0BB12B
:101B5000E36BC01AE169024600234046A847411CD6
:101B600041D1D8F80030002B3DD01D2B01D0162BD1
:101B700056D1A3892269226023F4006300216160A9
:101B8000A381216BC8F8006021B304F1400399429E
:101B900002D0404600F0BAFA00202063BDE8F08190
:101BA0002669BEB193B2256826609A070CBF6369A7
:101BB0000023AD1BA3600BE02B463246E169676A48
:101BC0004046B847B0F1000CA5EB0C05664417DDA4
:101BD000002DF1DC0020BDE8F081E36B002B9DDCE3
:101BE000F8E7206DAEE7B4F90C302269226023F4E7
:101BF0000063A3810022DB046260C2D52065C0E7D8
:101C0000A38943F040034FF0FF30A381BDE8F0818A
:101C1000D8F80030002B93D01D2B06D0162B04D003
:101C2000A38943F04003A381D5E7C8F80060D1E75A
:101C300038B50D46044608B1836B1BB1B5F90C00ED
:101C400030B938BD00F01EF9B5F90C000028F8D005
:101C500029462046BDE83840FFF752BF38B5B8B135
:101C60000F4B1D6804460DB1AB6B4BB1B4F90C00C2
:101C700000B938BD21462846BDE83840FFF740BFCF
:101C8000284600F0FFF8B4F90C000028F1D0F1E785
:101C9000044B05491868BDE8384000F02BBD00BF73
:101CA00008000024AC0E0408311C00080020704716
:101CB000014900F01FBD00BF911A000800207047C5
:101CC0002DE9F84F2D4A4668C26300240323C0E97A
:101CD000B843074600F53B720423C0F8E8222146CA
:101CE000C6E902430822C6E90044C6E90444746612
:101CF000B46106F15C0001F03BFCDFF88CB0BD681C
:101D0000DFF888A0DFF88890DFF888801C4BC6F8E1
:101D100024A0C6E9076BC6F82890C6F82C800822D4
:101D2000EB60C5E90044C5E904446C66AC60AC6195
:101D3000214605F15C0001F01BFCC5E9075BC5E924
:101D400009A9C5F82C80FD680E4BEB60C5E900447D
:101D5000C5E904446C66AC60AC612146082205F11B
:101D60005C0001F005FC0123C5E9075BC5E90A98A1
:101D7000C5F824A0BB63BDE8F88F00BFB11C000804
:101D80000900010012000200513D0008793D0008E1
:101D9000B93D0008D93D000870B568224D1E02FB10
:101DA00005F50E4605F1740100F02EFF044640B122
:101DB00000210C30C4E90016A06005F1680201F0B2
:101DC000D7FB204670BD00BF274B2DE9F0411E68B0
:101DD000B36B07465BB306F538764FF00408D6E9D7
:101DE0000134013B04D51EE05A1C04F168041AD0EA
:101DF000B4F90C50013B002DF6D11C4B6566C4E9CB
:101E00000055C4E90253C4E90455A56108222946D6
:101E100004F15C0001F0ACFBC4E90C55C4E91155B8
:101E20002046BDE8F08135682DB12E46D7E7304613
:101E3000FFF746FFCFE74FF4D671384600F0E4FED7
:101E4000044668B10560C0F804800C302946A060E3
:101E500025464FF4D07201F08BFB34602E46BEE76E
:101E60000C2330603B60DBE7AC0E04080100FFFF91
:101E7000024B0349186800F03DBC00BFAC0E0408DB
:101E8000911A0008836B03B1704719E7704700BFD0
:101E9000704700BF704700BF704700BF024B034947
:101EA000186800F007BC00BF08000024AD1C000843
:101EB000024B0349186800F0FDBB00BF0800002476
:101EC000BD1C000838B5084B084D5B1B9C1007D0A3
:101ED000043B1D44013C55F804399847002CF9D1C6
:101EE000BDE838403EF058BFC0940408BC940408D4
:101EF0002DE9F04F83B002FB03F8CDE900320C9CD2
:101F0000B8F1000F42D006460D4618B1836B002B86
:101F100000F08D80B4F90C3099049AB207D443F4E0
:101F20000053A3819AB2636E23F40053636667681B
:101F3000002FB7BF4FF0000BBB46C4F804B05F469C
:101F4000930727D4C34610E0216801F0FBF923680A
:101F50003B4423602146304601F036FC3D44ABEB68
:101F60000703002859D167689B46BB453A46284677
:101F7000EAD85A462168DDF8008001F0E3F9D4E997
:101F80000032A2EB0B025B44C4E90032404603B0CE
:101F9000BDE8F08FC34528BFC34621685A4628468E
:101FA00001F0D0F92368216B5B4423606368A3EBE5
:101FB0000B036360A8EB0B0751B1002F40D004F175
:101FC0004003994202D0304600F0A0F8002323637A
:101FD0005D44B14600E01F462146484687B3D4F829
:101FE00010B02668D4F814A02560C4E9045701F0A5
:101FF000EBFB616826600022C4E904BA7B1A0D4439
:1020000062600028E7D0019B8844A8EB0708B8FB72
:10201000F3F8404603B0BDE8F08F019BB844A8EB4D
:102020000B08B8FBF3F8404603B0BDE8F08FFFF7AC
:1020300029FFB4F90C3099049AB23FF578AF6EE7F6
:10204000DDF80080404603B0BDE8F08F10B5064CC7
:1020500082B084460093206813460A466146FFF723
:1020600047FF02B010BD00BF08000024F8B5244FA0
:102070000C46064601F0CEFABA685568C4F57E6390
:102080000F3325F003052B4423F47F6323F00F0364
:10209000A3F58054B4F5805F07DB0021304601F0E2
:1020A00055FCBB682B44984204D0304601F0B4FA8A
:1020B0000020F8BD6142304601F048FC01300DD0EF
:1020C000104ABB682D1B45F001055D601368304662
:1020D0001B1B136001F0A0FA0120F8BD002130465F
:1020E00001F034FCBA68831A0F2BDEDD43F00103E4
:1020F0005360054B03491B68C01A0860D5E700BF51
:10210000A4050024E80A0024AC090024002961D0B9
:10211000F8B50C46064601F07DFA54F8042C7B4FC6
:10212000A4F1080522F0010105EB010CB868DCF808
:102130000430604523F0030300F08B80D207CCF815
:10214000043032D454F8082CAD1A1144AA6807F1AF
:10215000080082426AD00CEB0304D4F804E0EC6877
:10216000D4601EF0010FA26000F0978041F00103DF
:102170006B60CCF80010B1F5007F35D27A68CB08DF
:1021800048090121013381401143796007EBC30203
:1021900057F83310083AC5E9021247F83350CD60BA
:1021A0003046BDE8F84001F037BA0CEB0302526844
:1021B000D00710D4194407F10800DCF80830834236
:1021C00073D0DCF80C20DA60936041F001036B609F
:1021D0006950D0E7704741F00103B1F5007F44F842
:1021E000043CCCF80010C9D3B1F5206F4FEA51235D
:1021F00048D28B0903F1390003F13802C300F81803
:10220000FB580838984259D05A6822F003028A4293
:1022100002D99B689842F7D1D868C5E90230856039
:10222000DD603046BDE8F84001F0F6B90CEB030282
:102230005268D20763D40B44DCE90212CA60916091
:1022400043F001026A603046EB50BDE8F84001F00F
:10225000E3B90B44D10707D454F8082CAD1A134442
:10226000D5E90212CA60916043F001026A60284A0F
:10227000BD6012689A4293D8264B30461968FFF722
:10228000F5FE8DE7142B0AD9542B1FD80B0B03F145
:102290006F0003F16E02C300B1E719448DE703F14B
:1022A0005C0003F15B02C300A9E741F00103C7E949
:1022B0000455C5E902006B60695071E779689210B6
:1022C000012404FA02F20A437A60A6E7B3F5AA7F72
:1022D00006D8CB0B03F1780003F17702C3008EE739
:1022E00040F25452934206D88B0C03F17D0003F167
:1022F0007C02C30083E74FF47E737E227FE741F0C8
:1023000001036B60CCF800104AE700BFA40500246D
:10231000B0090024E40A002400F00EB810B4054C03
:102320008446134620685DF8044B0A46614600F077
:1023300003B800BF080000242DE9F04F0C4697B009
:1023400017461E46054608B1836BC3B1A38903F443
:102350008473B3F5847F1AD0D4F82890B9F1000FB4
:1023600000F02781012E17D036F002085BD016232B
:102370002B604FF0FF38404617B0BDE8F08FFFF7F5
:1023800081FDA38903F48473B3F5847FE4D12146EE
:102390002846FFF74DFCDFE72146284600F03EF9CE
:1023A000B0F1FF3F8046E4D02369B34607440026DE
:1023B000002B3CD0B4F90C3040F61A02134299B20B
:1023C00007D1490551D47D4A914535D043F4006386
:1023D000A38121462846FFF72BFC80460028C8D160
:1023E000E16933463A462846C8470130C1D0216BDF
:1023F00041B104F14003994202D02846FFF786FE1E
:1024000000232363A3892269002123F40263C4E922
:102410000021A381082204F15C0001F0A9F84046E4
:1024200017B0BDE8F08F2369C346002BC2D1214607
:10243000284600F039FBBDE7B4F90E100029C5DBD2
:102440006A46284600F0CAF8002840F09180019BB7
:1024500003F47043B3F5004F40F08A80A38943F43E
:102460008063A3814FF48063E364002E5AD1BA469F
:10247000BBF1000F65D1A389DA0471D5206D6268C4
:10248000216BA0EB02081346002961D0D4F83CC0B0
:10249000A8EB0C08A36B206990441B1AA8EB030857
:1024A0006344C24503DB08EB0302524563D8E26C88
:1024B000E169524202EA0A08002342462846C84718
:1024C000013086D02369216B23600023636041B112
:1024D00004F14003994202D02846FFF717FE00237B
:1024E0002363A389BAEB080A23F02003A38110D049
:1024F0002146284601F068F900287FF46AAF636836
:102500005345FFF466AF2268A3EB0A035244C4E9C3
:1025100000230822002104F15C0001F029F84FF0AB
:10252000000828E7B4F90E106A46284600F056F86D
:1025300000287FF44EAF049B07EB030ABBF1000FAA
:1025400099D0216B19B16268D4F83CC0A2E76368E6
:1025500022682069121AA8EB020813440021A0E7A0
:102560000123E1695A462846C847431C87D130E712
:10257000B4F90C302AE7AAEB08084044A3EB08039F
:10258000C4E9000341B104F14003994202D0284656
:10259000FFF7BCFD00232363A38923F02003082257
:1025A000A381002104F15C0000F0E2FF4FF000087D
:1025B000E1E61D232B604FF0FF38DCE6B93D000853
:1025C00010B4054C8446134620685DF8044B0A4657
:1025D0006146FFF7B1BE00BF0800002470B50C468D
:1025E000084D03460026204611461C462E6010F07A
:1025F00060FB431C00D070BD2B68002BFBD0236018
:1026000070BD00BF180B002400F008B8024B014653
:10261000186800F003B800BF0800002470B50C462D
:10262000054608B1836B4BB3A66A002E35D0A3894B
:1026300003F00C02082A24D013F4805212D1012393
:10264000E1692846B047411C08BF4FF0FF3008D071
:10265000A3895A0709D56268236B801A0BB1E36B13
:10266000C01A70BD5A07206DF5D41B07F9D5236831
:10267000002BF6D022699B1A184470BDFFF702FCAC
:10268000D2E72268002AD7D02169521A002AD3DD66
:10269000D805D1D502230022D2E71D232B604FF0AD
:1026A000FF3070BD024B01461868FFF7B7BF00BF8F
:1026B000080000242DE9F041884600F5387700260F
:1026C000D7E90154013D0FD4A389012B05F1FF3552
:1026D00006D9B4F90E300133204601D0C047064375
:1026E0006B1C04F16804EFD13F68002FE8D130463D
:1026F000BDE8F0812DE9F8430746884600F53876B5
:102700004FF00009D6E90154013D11D4A389012BF2
:1027100005F1FF3508D9B4F90E300133214603D055
:102720003846C04749EA00096B1C04F16804EDD142
:102730003668002EE6D14846BDE8F8832DE9F04121
:1027400086B002FB03F61C4601AB039301230C9FEA
:1027500001919046029605960493054608B1836B55
:10276000BBB1B7F90C309A0406D443F40053BB81D3
:102770007B6E23F400537B663946284603AA09F092
:102780001FF948B10598361AB6FBF8F006B0BDE857
:10279000F081FFF777FBE4E7204606B0BDE8F08163
:1027A000F0B5194C89B01546226803901C4603AB5E
:1027B00005FB01F6059301230F4604960796069341
:1027C0000AB1936BB3B1B4F90C30990406D443F455
:1027D0000053A381636E23F40053636610462146C1
:1027E00005AA09F0EDF858B10798361AB6FBF7F0CC
:1027F00009B0F0BD10460192FFF744FB019AE2E7F1
:10280000284609B0F0BD00BF0800002438B50D46C9
:10281000044608B1836B4BB16B68013B002B6B60C6
:102820000BDB2B685A1C2A60187838BDFFF72AFB8F
:102830006B68013B002B6B60F3DA29462046BDE84C
:10284000384001F04BB800BF38B50F4B1D68044647
:102850000DB1AB6B4BB16368013B002B63600CDBCC
:1028600023685A1C2260187838BD2846FFF70AFBF7
:102870006368013B002B6360F2DA21462846BDE81D
:10288000384001F02BB800BF0800002408F0E0BF7A
:1028900008F0ECBF70B50D4E0D4D761BB61006D08E
:1028A000002455F8043B01349847A642F9D1094E5B
:1028B000094D761B3EF06AFAB61006D0002455F892
:1028C000043B01349847A642F9D170BD94940408A2
:1028D00094940408BC9404089494040801390B29C6
:1028E0001FD8DFE801F0080A0C0E10121416181A8F
:1028F0001C0600F085B809F069BE09F075BE09F044
:1029000081BE09F095BE00F00FB800F013B800F0DA
:1029100025B800F037B800F043B800F04FB800F029
:102920005BB80020704700BF303809288CBF0020FA
:1029300001207047002100F001B800BF38B50446FF
:102940000D4600F023F800B938BD2946204600F0B6
:1029500039F8B0FA80F0400938BD00BF002100F01E
:1029600001B800BFFF2809D8054BC05C00F0030088
:10297000A0F10200B0FA80F04009704700207047D3
:10298000A90D0408002100F001B800BFFF289DBF79
:10299000024BC05C00F0970000207047A90D0408AE
:1029A000002100F001B800BFFF289DBF024BC05CB2
:1029B00000F0100000207047A90D0408002100F06D
:1029C00001B800BFFF289DBF024BC05C00F00800AB
:1029D00000207047A90D0408002100F001B800BFD5
:1029E000FF2809D8054BC05C00F00300A0F10100EE
:1029F000B0FA80F04009704700207047A90D040824
:102A0000A0F13003092B07D920F020004138052818
:102A10008CBF0020012070470120704742B110B5E3
:102A20000B491046144601F0DFF918B9094810BDEA
:102A3000084870470749204601F0D6F90028F5D02C
:102A40000549204601F0D0F90028EFD0002010BD44
:102A5000085004083C230408343B0408014B93F855
:102A6000280170473804002441B110B50C462046B7
:102A70000A4901F0B9F918B9094810BD084870476A
:102A80000749204601F0B0F90028F5D00549204655
:102A900001F0AAF90028EFD0002010BD085004086A
:102AA0003C230408343B04082DE9F0418B890C4693
:102AB000990796B008D504F143030122C4E9043212
:102AC000236016B0BDE8F081B4F90E100029064667
:102AD00027DB6A46FFF782FD002821DB019D05F414
:102AE0007045A5F50055B5FA85F54FF480686D0978
:102AF0004FF400674146304600F086F8B4F90C30D8
:102B0000F0B1204AF26343F08003C4F81480A3813B
:102B10002060206135BB3B43A38116B0BDE8F08146
:102B2000A38913F0800519D04FF040084146304684
:102B300000F06AF80025B4F90C302F460028E0D1E7
:102B40009A05BED423F0030304F1430243F00203C9
:102B50000121C4E90421A3812260B2E74FF4806817
:102B60002F46C7E7B4F90E10304609F01DFD10B925
:102B7000B4F90C30CFE7A38923F0030343F001033A
:102B80001BB2C8E7B11C000870B50C46B1F90E10B5
:102B9000002996B015461E4614DB6A46FFF71EFD57
:102BA00000280FDB019A02F47042A2F50052B2FA3B
:102BB00082F24FF4806352094FF4006032602B6060
:102BC00016B070BDB4F90C10002311F08000336012
:102BD00004D0402218462A6016B070BD4FF48063BE
:102BE0002B6016B070BD00BF024B0146186800F0A4
:102BF0000BB800BF08000024024B01461868FFF71D
:102C000085BA00BF080000242DE9F04F01F10B0642
:102C1000162E83B0044624D8102900F2BA8000F0A2
:102C2000F9FC102618220220B74F3A44A2F10801FD
:102C300053688B4200F0BA805A68D96822F00302C8
:102C40001A449D68E9608D60516841F00101204699
:102C5000516003F1080500F0DFFC284603B0BDE831
:102C6000F08F36F0070600F19480B14200F29180B7
:102C700000F0D0FCB6F5FC7FC0F09681730A00F03E
:102C80008F80042B00F26B81B30903F1390003F14B
:102C9000380CC3009C4F3B44A3F108055B689D4280
:102CA00006D10CE0002980F22B81DB689D4206D022
:102CB0005A6822F00302911B0F29F3DD60463D693B
:102CC000DFF848C265457CD06A6822F00302931B96
:102CD0000F2B00F37781002BC7E904CC80F26881C9
:102CE000B2F5007F80F01681D308796801334FEA8E
:102CF000521E012202FA0EF20A4357F833E0C5F8D9
:102D000008E007EBC3010839E9607A6047F83350FF
:102D1000CEF80C50831001219940914257D81142AE
:102D200006D120F003004900114200F10400FAD05E
:102D300007EBC0094D468646D5F80C80454508D1BD
:102D400019E1002B80F22081D8F80C80454500F075
:102D50001281D8F8042022F00302931B0F2BF0DD20
:102D60002046D8E9025408EB060146F00106C8F8EF
:102D70000460EC60A56043F00104C7E90411C1E9F7
:102D800002CC4C6048F8023000F046FC08F108051F
:102D900002E00C2323600025284603B0BDE8F08F35
:102DA0004FF4007340204FF03F0C73E7D3689A4212
:102DB00008BF02307FF440AF3D69DFF850C1654580
:102DC00082D17A688310012199409142A7D9BD68C8
:102DD0006B6823F00308464503D8A8EB06030F2BC6
:102DE0007EDCDFF82C91D7F80824D9F800300132C6
:102DF000334405EB080A00F02F8103F580530F33AD
:102E000023F47F6B2BF00F0B5946204600F09EFDFC
:102E1000411C024600F0EF80824500F2EA80D9F8BA
:102E200004105944C9F804100B4600F04B81D7F840
:102E3000081401311BBFA2EB0A0A5344C7F8082447
:102E4000C9F8043012F0070300F01281C3F1080141
:102E50000A44C3F5805193440831A1EB0B01C1F33F
:102E60000B0A514620460192009300F06FFD421C70
:102E7000DDE9003200F04B81831A03EB0A0BD9F82D
:102E80000400BA604BF001030AEB0001BD4253603D
:102E9000C9F8041000F02281B8F10F0F40F2208130
:102EA0006B68A8F10C0020F0070003F00103034356
:102EB0006B604FF0050C2B180F28C3E901CC00F212
:102EC0002D8153681546D9F82C208A42D9F8302034
:102ED00038BFC9F82C108A4238BFC9F830108CE0CE
:102EE000AA1943F0010346F001066E602046BA605D
:102EF000536000F091FB0835284603B0BDE8F08F21
:102F0000D9681A449DE600BFA4050024AC0500243E
:102F1000E40A0024B2F5206F4FEA522363D3142B46
:102F200000F2B88003F15C01C9005B3307EB010ECE
:102F30007958AEF1080E8E4500F091804B6823F071
:102F40000303934202D989688E45F7D1D1F80CE08A
:102F50007A68C5E9021ECEF80850CD60DAE6142B77
:102F600059D9542B00F29E80330B03F16F0003F10B
:102F70006E0CC3008EE60EF1010E1EF0030F05F17C
:102F800008057FF4D9AE51E0424445465368D8F86D
:102F90000C1043F00103536055F8083F2046D960F8
:102FA0008B6000F039FBF7E6F00806F108023BE61B
:102FB0002A442046536843F001035360083500F06B
:102FC0002BFBE9E6A919204646F0010643F001046F
:102FD0006E60C7E90411C1E902CC4C60AB5000F04F
:102FE0001BFB0835D8E6930903F13901C9003833D2
:102FF0009CE7BD4260D0BD686B6823F0030B5E4563
:10300000ABEB060302D80F2B3FF76AAF204600F068
:1030100003FB0025C0E603F15C0003F15B0CC30079
:1030200038E659F808394B4540F0968010F0030F08
:1030300000F1FF30F5D17B6823EA01037B60490092
:1030400099423FF6C4AE19B9C1E649000EF1040E2B
:103050001942FAD070466BE603F1100BD4E69A10D1
:103060004FF001087B6808FA02F21A437A6070E7B1
:1030700002EB0B014942C1F30B0A51462046019372
:10308000009200F063FC431CDDE900237FF4F4AE02
:103090009A46F4E6542B26D8130B03F16F01C900AE
:1030A0006E3343E7B3F5AA7F26D8F30B03F178001C
:1030B00003F1770CC300EDE5D9F804305B44C9F89F
:1030C0000430B4E6CAF30B0000287FF4B0AEBD684C
:1030D00008EB0B0343F001036B60F4E61546F2E6E0
:1030E0000123536092E7B3F5AA7F21D8D30B03F1F4
:1030F0007801C900773319E740F25452934221D83E
:10310000B30C03F17D0003F17C0CC300C2E5083B66
:103110009B44ABEB020B4FF0000AB0E605F108014F
:103120002046FEF7F3FFBD68D9F804106B68CAE6C5
:1031300040F254518B420BD8930C03F17D01C9002E
:103140007C33F3E64FF47E737F204FF07E0CA1E5D5
:103150004FF47E717E23E9E67B6870E770B582B03C
:103160000546069C42B10C4E0094D6F8E460B04788
:10317000431C0BD002B070BD074B0094D3F8E46041
:1031800011460123054AB047431CF3D100228A238C
:1031900022602B6002B070BD38040024343B040868
:1031A00070B51C46104B82B01D6861B113460A46CB
:1031B00001460E480094D0F8E4602846B047431C0E
:1031C0000BD002B070BD094B0094D3F8E460084AFC
:1031D00001232846B047431CF3D100228A232260F2
:1031E0002B6002B070BD00BF08000024380400242A
:1031F000343B040810B4034CD4F8E440A4465DF812
:10320000044B60473804002482B049B15AB16BB115
:1032100013780B601278101E18BF012002B070479F
:1032200001A9002AF3D1104602B070476FF00100E7
:10323000F4E700BF000000000000000000000000F4
:1032400001F0FF01102A2BDB10F0070F08D010F857
:10325000013B013A8B422DD010F0070F42B3F6D15B
:10326000F0B441EA012141EA014122F007047FF074
:1032700000070023F0E80256083C85EA010586EACB
:10328000010685FA47F5A3FA87F586FA47F6A5FA07
:1032900087F68EB9EED1F0BC01F0FF0102F0070213
:1032A00032B110F8013B013A83EA010313B1F8D1BE
:1032B0000020704701387047002D06BF354603389F
:1032C000073815F0010F07D1013015F4807F02BFD8
:1032D000013015F4C03F0130F0BC0138704700BF29
:1032E000032A70B515D940EA010C1CF0030F0446FF
:1032F0000B4621D1194620460E680568B54204F1F7
:10330000040403F1040317D1043A032A20461946A2
:10331000F0D8541EA2B100F1FF3C013901E0C318FE
:103320000CD01CF801EF11F8012F9645A4EB0C030B
:10333000F5D0AEEB020070BD541EECE7184670BD30
:10334000104670BD844641EA000313F003036DD1BB
:10335000403A41D351F8043B40F8043B51F8043B58
:1033600040F8043B51F8043B40F8043B51F8043B5F
:1033700040F8043B51F8043B40F8043B51F8043B4F
:1033800040F8043B51F8043B40F8043B51F8043B3F
:1033900040F8043B51F8043B40F8043B51F8043B2F
:1033A00040F8043B51F8043B40F8043B51F8043B1F
:1033B00040F8043B51F8043B40F8043B51F8043B0F
:1033C00040F8043B51F8043B40F8043B51F8043BFF
:1033D00040F8043B403ABDD2303211D351F8043B9F
:1033E00040F8043B51F8043B40F8043B51F8043BDF
:1033F00040F8043B51F8043B40F8043B103AEDD24E
:103400000C3205D351F8043B40F8043B043AF9D29E
:10341000043208D0D2071CBF11F8013B00F8013B71
:1034200001D30B8803806046704700BF082A13D37E
:103430008B078DD010F003038AD0C3F10403D21A96
:10344000DB071CBF11F8013B00F8013B80D331F8CA
:10345000023B20F8023B7BE7043AD9D3013A11F84A
:10346000013B00F8013BF9D20B7803704B784370B5
:103470008B7883706046704788420DD98B188342E1
:103480000AD900EB020CBAB1624613F801CD02F87A
:1034900001CD9942F9D170470F2A0ED8034602F1A7
:1034A000FF3C4AB10CF1010C013B8C4411F8012B9B
:1034B00003F8012F6145F9D1704740EA01039B07EA
:1034C00050D1A2F1100370B501F1200C23F00F05CB
:1034D00001F1100E00F11004AC441B095EF8105C01
:1034E00044F8105C5EF80C5C44F80C5C5EF8085C18
:1034F00044F8085C5EF8045C44F8045C0EF1100EBD
:10350000E64504F11004E9D1013312F00C0F01EB90
:10351000031102F00F0400EB031327D0043C24F046
:1035200003064FEA940C1E441C1F8E465EF8045B93
:1035300044F8045FB442F9D10CF1010402F0030233
:1035400003EB840301EB840102F1FF3C4AB10CF16F
:10355000010C013B8C4411F8012B03F8012F61454C
:10356000F9D170BD02F1FF3C03469BE72246EBE731
:10357000830730B548D0541E002A3FD0CAB2034654
:1035800001E0013C3AD303F8012B9D07F9D1032C4C
:103590002DD9CDB245EA05250F2C45EA054536D98A
:1035A000A4F1100222F00F0C03F1200EE6444FEAC2
:1035B000121C03F1100242E9045542E9025510328F
:1035C0007245F8D10CF1010214F00C0F03EB02125A
:1035D00004F00F0C13D0ACF1040323F00303043305
:1035E000134442F8045B9342FBD10CF003042CB16A
:1035F000CAB21C4403F8012B9C42FBD130BD644687
:103600001346002CF4D1F9E703461446BFE71A46E7
:10361000A446E0E7704700BF704700BF70B50D4695
:103620001646044608B1836B7BB1B368013B002B9F
:10363000B36011DAB069834214DBE8B20A2811D012
:1036400033685C1C34601D7070BDFEF71BFCB368F2
:10365000013B002BB360EDDB33685C1C34601D70F4
:10366000E8B270BD324629462046BDE8704005F0FC
:1036700013BE00BF164B70B51E6805460C460EB152
:10368000B36B7BB1A368013B002BA36012DAA26984
:10369000934215DBE8B20A2812D023685A1C226034
:1036A0001D7070BD3046FEF7EDFBA368013B002B9B
:1036B000A360ECDB23685A1C22601D70E8B270BD69
:1036C000224629463046BDE8704005F0E5BD00BF02
:1036D0000800002408F03CB908F04EB92DE9F0418B
:1036E0000E680C460546BEB137688FB1D7F800802A
:1036F000B8F1000F08D0D8F8001009B1FFF7EEFFBD
:1037000041462846FEF702FD39462846FEF7FEFCF4
:1037100031462846FEF7FAFC21462846BDE8F0412E
:10372000FEF7F4BC224B1B68834240D0C16C70B5DD
:10373000054681B100268C593CB1214624682846B3
:10374000FEF7E4FC002CF8D1E96C0436802EF2D1AF
:103750002846FEF7DBFC296C11B12846FEF7D6FCA3
:10376000D5F8484154B105F5A676B44206D02146B5
:1037700024682846FEF7CAFCA642F8D1696D11B14B
:103780002846FEF7C3FCAB6B83B1EB6B284698472A
:10379000D5F8E04254B1216811B12846FFF79EFFE9
:1037A00021462846BDE87040FEF7B0BC70BD7047AA
:1037B00008000024838903F00903092B01D00020AD
:1037C0007047FEF74BBA00BFF8B50C46054610B17E
:1037D000836B002B41D0B4F90C309F049AB207D40C
:1037E000626E43F4005322F400526266A3819AB2DF
:1037F00000219606616062D450071BD4D10661D5C2
:1038000012073ED443F00403A3812369002B44D064
:10381000B4F90C60B307B7B222D12269266A636992
:10382000E16922602846B04700286060C8BF0020D8
:1038300038DDF8BD216B0029E7D004F1400399423F
:1038400002D02846FEF762FCE36B63600020206331
:10385000002BDAD0A36B2360F8BDFEF713FBBAE7A9
:103860000123A3811B4B1C49186807F00907FEF7C9
:1038700021FF092FA681D0D121462846FEF740F925
:10388000CBE721462846FEF7D3F9C0B9B4F90C308E
:10389000A06023F00803A061B4E721462846FFF7A3
:1038A00003F9B5E7A38905D143F020034FF0FF30BA
:1038B000A381F8BD002243F040036260A3814FF072
:1038C000FF30F8BD092243F040032A604FF0FF307B
:1038D000A381F8BDAC0E0408B537000838B50C4616
:1038E000054608B1836B63B121462846FFF76CFF9C
:1038F00050B9D4E90023511C013BC4E900131078EE
:1039000038BDFEF7BFFAEFE74FF0FF3038BD00BF1C
:1039100038B50D4B1D6804460DB1AB6B63B1214644
:103920002846FFF751FF58B9D4E90023511C013B49
:10393000C4E90013107838BD2846FEF7A3FAEEE775
:103940004FF0FF3038BD00BF0800002438B5074DE8
:103950000022044608462A600FF0B4F9431C00D048
:1039600038BD2B68002BFBD0236038BD180B00241A
:1039700038B5D0F8DC420CB1002038BD80210546B6
:10398000FFF742F90246C5F8DC0230B1031F7C3272
:1039900043F8044F9342FBD1EEE74FF0FF3038BDC0
:1039A0001F29F8B5054609D8D0F8DC620C46174641
:1039B0004EB156F8240046F82470F8BD1623036073
:1039C0004FF0FF30F8BD8021FFF71EF90646C5F81D
:1039D000DC0240B1031F00F17C05002143F8041F05
:1039E0009D42FBD1E5E74FF0FF30F8BD1F2938B508
:1039F000054621D8D0F8DC220C466AB152F82130B5
:103A000053B1012B16D0591C10D00025204642F886
:103A100024509847284638BD284600F003F922462E
:103A200001462846BDE8384000F0E6B8162303609A
:103A3000012038BD002038BD162303604FF0FF3051
:103A400038BD00BF1F292CD8D0F8DC2238B50C4671
:103A5000054682B152F8243002EB84024BB1591C66
:103A60001AD0012B16D0002520461560984728460D
:103A700038BD012038BD8021FFF7C6F80246C5F8E1
:103A8000DC0258B1031F00217C3043F8041F984228
:103A9000FBD1DFE7032038BD022038BD4FF0FF30F7
:103AA00038BD4FF0FF30704738B5154B1F281D68E3
:103AB00020D8D5F8DC22044662B152F820304BB150
:103AC000012B15D0591C0FD0002542F820509847E3
:103AD000284638BD284600F0A5F82246014628466B
:103AE000BDE8384000F088B816232B60012038BDAF
:103AF000002038BD16232B604FF0FF3038BD00BFCB
:103B000008000024134B1F2870B51E6809D80D4605
:103B1000D6F8DC12044649B151F8240041F824508B
:103B200070BD162333604FF0FF3070BD80213046EA
:103B3000FFF76AF80146C6F8DC0240B1031F00F146
:103B40007C0C002243F8042F6345FBD1E4E74FF0DF
:103B5000FF3070BD0800002438B50C4B1D68D5F847
:103B6000DC420CB1002038BD80212846FFF74CF81C
:103B7000C5F8DC0238B1031F00F17C0243F8044FA2
:103B80009342FBD1EEE74FF0FF3038BD0800002430
:103B900038B5184B1F281D6828D8D5F8DC220446F4
:103BA00082B152F8243002EB84024BB1591C1BD075
:103BB000012B17D00025204615609847284638BDB0
:103BC000012038BD80212846FFF71EF80246C5F8BF
:103BD000DC0258B1031F00217C3043F8041F8342EC
:103BE000FBD1DEE7032038BD022038BD4FF0FF30A7
:103BF00038BD00BF0800002470B50C46084D0346D0
:103C00000026204611461C462E600FF023F8431C68
:103C100000D070BD2B68002BFBD0236070BD00BFAF
:103C2000180B00240FF014B80CB410B59CB01EABE8
:103C30006FF00044CDE906140291084953F8042BB3
:103C4000059102A90193049402F0E2FC029B002278
:103C50001A701CB0BDE8104002B070470802FFFFA8
:103C60000EB410B59DB06FF000411FABCDE9060159
:103C70000491094953F8042B0290084C08680193F9
:103C800002A9059402F0C4FC029B00221A701DB028
:103C9000BDE8104003B07047080000240802FFFF91
:103CA0000EB410B59FB021AC4FF4017154F8042B41
:103CB0000192ADF81C100490089001F0E1FA059013
:103CC00009900B480B490C9100234FF6FF7C109391
:103CD0001593019A0068ADF81EC0234604A9039409
:103CE00003F0F4FE1FB0BDE8104003B0704700BF02
:103CF00008000024753D00080CB430B59FB022AC1C
:103D00004FF4017354F8042B019205460846ADF8B0
:103D10001C300491089101F0B3FA0C490C91034650
:103D2000059309934FF6FF71002310931593ADF897
:103D30001E10019A03942846234604A903F0C6FEE8
:103D40001FB0BDE8304002B0704700BF753D0008AD
:103D500010B50C46B1F90E1009F0FEF9002803DB8E
:103D6000236D0344236510BDA38923F48053A381ED
:103D700010BD00BF002070472DE9F0410C46B1F99D
:103D80000C101F46CB05054616460BD421F4805176
:103D9000A1813B46B4F90E1032462846BDE8F041F9
:103DA00006F00EBCB4F90E100223002208F05CFCF1
:103DB000B4F90C10EAE700BF10B50C46B1F90E10CB
:103DC00008F052FCA389421C0EBF23F4805343F435
:103DD00080532065A38110BDB1F90E1006F0A8BC78
:103DE000A2EB0300704700BF02780B78012A28BFBE
:103DF0009A42F5D16DE9044540EA0104CDE9026734
:103E00006FF0000C4FEA447212B380EA010414F020
:103E1000070F6AD100F0070420F0070004F0030543
:103E200021F007014FEAC505F0E8042314F0040F60
:103E3000F1E804670CFA05F462EA040266EA040693
:103E40000AD063EA0403624667EA0407664603E0B1
:103E5000F0E80423F1E8046782FA4CF582EA0604EC
:103E6000A4FA8CF46CBB83FA4CF583EA0705A5FA37
:103E70008CF595B950E9022351E9026782FA4CF5B5
:103E800082EA0604A4FA8CF483FA4CF583EA070567
:103E9000A5FA8CF52543DBD09CB92DBAB5FA85F48B
:103EA00024F0070427FA04F1DDE9026723FA04F39A
:103EB00003F0FF0001F0FF01FDE80445A0EB010065
:103EC000704724BAB4FA84F424F0070426FA04F103
:103ED000DDE9026722FA04F202F0FF0001F0FF01BF
:103EE000FDE80445A0EB0100704714F0030F3CD13E
:103EF00010F0030428D150F8082B51F8083B82FA3F
:103F00004CF582EA0305A5FA8CF55DB950F8042C4E
:103F100051F8043C82FA4CF582EA0305A5FA8CF5C7
:103F2000002DE8D02DBAB5FA85F424F0070423FA61
:103F300004F122FA04F202F0FF0001F0FF01FDE8B3
:103F40000445A0EB010070474FEAC40420F00300D1
:103F500050F8082B21F0030151F8083B0CFA04F447
:103F600062EA040263EA0403C9E710F003041AD00A
:103F7000A1EB040120F00300E40750F8042B06D065
:103F80000FD28B785FFAA2F4E41A06D12BB1CB786A
:103F90005FFAB2F4E41A00D11BB920465DF8104B69
:103FA000704701F1040150F8042BCC0721F0030104
:103FB00051F8043B48D824D222F07F4482FA4CF5D1
:103FC00094EA1325A5FA8CF50AD165B951F8043B9A
:103FD00084EA0204B4EB036F0ED150F8042BEBE734
:103FE0004FEA132355E035F07F454DD10878FDE8C1
:103FF0000445C0F1000070474FEA126203F0FF036E
:1040000047E002EA1C4482FA4CF594EA1345A5FA0B
:104010008CF50AD165B951F8043B84EA0204B4EB8B
:10402000034F0CD150F8042BEBE74FEA134330E079
:1040300015EA1C4528D10B884FEA124229E04FEAC5
:10404000124203EA1C4324E002F0FF0482FA4CF51A
:1040500094EA1365A5FA8CF50AD165B951F8043BC9
:1040600084EA0204B4EB032F09D150F8042BEBE7E8
:104070004FEA13630DE015F0FF0F05D10B684FEA0F
:10408000122223F07F4304E04FF00000FDE80445D6
:10409000704712BA1BBA82FA4CF482EA0304A4FAFB
:1040A0008CF5B5FA85F402FA04F203FA04F34FEA48
:1040B0001260FDE80445A0EB13607047FFF794BE63
:1040C0008C461146BCF18E0F00F29180DFE81CF0A7
:1040D00039013B0137013501330131012F012D0138
:1040E0002B01290127012501230121011F018F0037
:1040F0001D011B01190117011501130111010F0108
:104100000D010B0109010701050103010101FF0078
:10411000FD00FB00F900F700F5008F008F008F0015
:104120008F008F008F008F008F00F300F1008F0051
:104130008F008F008F008F008F008F008F008F0007
:104140008F008F008F008F00EF00ED00EB00E90083
:104150008F008F008F00E7008F008F008F00E50039
:104160008F008F00E3008F008F00E1008F008F0031
:104170008F008F008F008F008F008F008F008F00C7
:10418000DF008F00DD00DB00D9008F008F00D7003B
:104190008F008F008F008F008F008F008F008F00A7
:1041A000D500D300D100CF00CD00CB008F00C900D7
:1041B000C700C500C300C100BF00BD00BB00B900FF
:1041C000B700B500B300B1008F00AF00AD00AB0089
:1041D000A9008F008F008F008F008F00A7008F0035
:1041E0008F008F00A500A300A1009F009D00002B61
:1041F00014BF1A46024608B5604604F0D1FE0246D6
:104200005248002A18BF104608BD5148704751480F
:10421000704751487047514870475148704751485E
:10422000704751487047514870475148704751484E
:10423000704751487047514870475148704751483E
:10424000704751487047514870475148704751482E
:10425000704751487047514870475148704751481E
:10426000704751487047514870475148704751480E
:1042700070475148704751487047514870475148FE
:1042800070475148704751487047514870475148EE
:1042900070475148704751487047514870475148DE
:1042A00070475148704751487047514870475148CE
:1042B00070475148704751487047514870475148BE
:1042C00070475148704751487047514870475148AE
:1042D000704751487047514870475148704751489E
:1042E000704751487047514870475148704751488E
:1042F000704751487047514870475148704751487E
:10430000704751487047514870475148704751486D
:10431000704751487047514870475148704751485D
:10432000704751487047514870475148704751484D
:10433000704751487047514870475148704751483D
:104340007047514870475148704700BF343B0408DC
:10435000805604086856040854560408B8560408E1
:10436000B0530408E85204082056040838560408DC
:1043700024520408E455040858540408E05604087C
:10438000EC500408B4500408BC510408BC520408A2
:10439000AC510408F456040800520408D45304082D
:1043A000FC550408CC5504089C55040884550408A1
:1043B000645504084455040814550408F0540408CE
:1043C000B055040894560408D8540408BC54040892
:1043D000A85404088C540408805404086C5404083D
:1043E00048540408305404081C54040804540408B5
:1043F0000C550408F4530408EC530408C85304088B
:104400009C530408805304086C5304083C5304086C
:10441000305304082053040808530408F8520408D1
:10442000D0520408AC5204089C5204088452040878
:104430006452040844520408EC510408DC51040896
:104440009C5104088C510408785104086C510408EC
:1044500054510408485104083451040820510408F8
:104460000C510408E0500408D0500408A05004087F
:104470008C50040870500408645004084C50040820
:104480003C500408205004080C5704081450040839
:10449000034A0023014610681A46FFF711BE00BF09
:1044A00008000024034A0023014610681A46FFF75B
:1044B00007BE00BF080000244269002A40F26C7366
:1044C000A8BF6FF063031344920710B408D14D4C9A
:1044D0004D4A4E4904FB0322B1EBB20FC0F08F806E
:1044E000494A484C4A4904FB0323B1EB331F2CBF14
:1044F00001220022D0E906315B0003EB01131344D3
:10450000212B23DDA3F5B553023B352B20D8352BCA
:104510001ED8DFE803F0701D1D1D1D1D1D1D1D1D76
:104520001D1D1D1D1D1D7070701D1D1D1D1D1D1DC2
:104530001D1D1D1D1D1D70707070701D1D1D1D1D0C
:104540001D1D1D1D1D1D1D701D701D70002B03DA0E
:1045500000205DF8044B7047212BF9D801A252F8D6
:1045600023F000BFED450008ED4500085145000867
:1045700051450008514500085145000851450008C3
:10458000514500085145000851450008ED45000817
:10459000ED450008ED450008ED45000851450008CF
:1045A00051450008ED450008ED450008514500085B
:1045B0005145000851450008514500085145000883
:1045C0005145000851450008514500085145000873
:1045D00051450008ED450008ED450008514500082B
:1045E00051450008ED450008ED4500084FF0FF304B
:1045F0005DF8044B704701205DF8044B70470122C1
:1046000078E700BF295C8FC250B81E05285C8F0276
:104610000AD7A3002DE9F04F14788FB083460E46D9
:1046200054B92546002E00F0C580002328460BF81B
:1046300005300FB0BDE8F08F1F46002302931D46E2
:104640002346252B14460CD0721EAA4240F2B1809C
:104650000BF80530013401352378002BE2D0252BEF
:10466000F2D194F80180B8F1300F00F0AA80B8F1CF
:104670002B0F00F0A6804146A1F13103082B04F175
:1046800001044FF0000840F2A4804FF000094529D2
:1046900000F094804F2900F09180A1F12502552A65
:1046A00000F28780DFE812F01202850085008500A5
:1046B00085008500850085008500850085008500D2
:1046C00085008500850085008500850085008500C2
:1046D00085008500850085008500850085008500B2
:1046E0005502760219014C0185006D01A001B4004C
:1046F000BB008500850085003202850085005600DC
:10470000850005021E0421043004F70159036903E2
:104710007003910385008500850085008500850074
:104720003502D1001B029E009E008500ED00D100E5
:1047300085001101B400BB001501960285005600EA
:1047400085009F02A60237034C0385003504C3038E
:10475000CA03D803BB680B2B954BD4BF00220122A0
:1047600003EB8203D3F8A480404600F089FD0028C3
:1047700048D006F1FF3EAE451BD94346691EDFF81F
:104780006082284459442278502A1A7808D112F8B5
:1047900008C00CF0030CBCF1010F04BF2032D2B2F0
:1047A0000135854201F8012F03F101032AD0754537
:1047B000E9D3002528460FB0BDE8F08F61780134B9
:1047C0006BE7A178A1F13103082B04F102043FF655
:1047D0005CAF204606A90A2201F0F0FE069C814645
:1047E000217854E7734B744A642918BF1A46FB6852
:1047F000711B0BEB050008F09FFF0028D9DB054477
:10480000AE42D6D92378002B3FF40CAF013423E716
:10481000694B684A6B2918BF1A46BB68E8E7BB6852
:10482000002B00F0A3830C2B09D0644A82FB0320E9
:10483000DA17C2EB600202EB4202A3EB82035E488E
:104840005C4A492908BF0246D2E73A69584B53F8F7
:104850002280404600F014FD0028D3D006F1FF3C32
:10486000AC45A6D96A1E08F1FF3328445A440135E5
:1048700013F8011F02F8011F8542C3D06545F6D326
:1048800097E73846FFF718FE804678690028C0F29F
:1048900073844B4B83FB0023C217C2EB6312642368
:1048A00003FB1202464B424483FB0213D117C1EBB8
:1048B0006311642000FB1122414B0244A3FB02134D
:1048C0005B0900FB13233C4A92E7FB693D4A013335
:1048D0008EE73B69384A01338AE73B4BD7F814A08F
:1048E0009A45ACBF00230123BAF1000F0393C0F235
:1048F0002C84334B83FB0A234FEAEA72C2EB631327
:1049000003F1130CB8F1000F00F07C83BCF1630FCE
:1049100040F3D2832D4A2E4BDFF8C8E0B8F12B0FBD
:1049200018BF134628482B49B9F1020F38BF4FF082
:1049300002098245B8BF0B460BEB0500711B6CE307
:1049400078693B69D7F80C90002803F101030BEB61
:104950000508A6EB0501C0F2E583194A82FB002C8D
:10496000C217C2EB6C124FF0640C0CFB1202CDE9C3
:1049700000924046184A08F0DFFE0028BFF63FAF1D
:1049800017E725238DF81830B8F1000F40F0CB82DF
:104990002B238DF8193004230DF11A080F4A1E211C
:1049A000404608F0C9FE002840F3CA824044C8E2ED
:1049B000440F0408345704082C570408ABAAAA2A49
:1049C0001F85EB515857040894F8FFFF343B040847
:1049D000245704082857040838570408485704087F
:1049E000A90D040814570408CF4BD7F814A09A4512
:1049F000ACBF0023012338460393FFF75DFDBAF1F6
:104A0000000F0146C0F26483C84B4FEAEA7083FB93
:104A10000A23C0EB631313335246C448A0FB020CB5
:104A20004FEA5C1C642000FB1C2C0029C0F2BD82F4
:104A300000F0DE83BC488245C0F2FC820022039273
:104A40008C44BCF1FF3F00F0B982BCF1640F04BF9D
:104A500001334FF0000C642202FB03C3039A002AC7
:104A600040F09881B8F12B0F40F07C8242F20F7237
:104A7000934240F2C6838DF81880B9F1000F40F0E0
:104A800066820DF119000DF1180A252202703022FC
:104A90004270023090E13846FFF70EFDBA69002AF5
:104AA00000F06682013A002840F38C820123A04A7C
:104AB0009EE67B680093BB689E4A711B0BEB05006A
:104AC00008F03AFE0028BFF69AAE72E6731EAB42BB
:104AD0007FF66FAE25230BF80530013592E6964B35
:104AE000D3F8A080404600F0CBFB98F80030002BB4
:104AF0003FF488AE42463B46711B0BEB0500FFF7C7
:104B000089FD00287FF755AE05447BE67B68884A1F
:104B10006EE6BB69884A183352F82380404600F09D
:104B2000AFFB00283FF46EAE06F1FF3CAC457FF6CC
:104B300040AE6A1E08F1FF3328445A44013513F889
:104B4000011F02F8011F85423FF45CAE6545F5D3B5
:104B50002FE6BA69784B03EB8203D3F87C8040469A
:104B600000F08EFB00283FF44DAE06F1FF3C65459A
:104B7000BFF41FAE6A1E08F1FF3328445A440135C2
:104B800013F8011F02F8011F85423FF43BAE654553
:104B9000F5D30EE63B69684A0C3352F82380404651
:104BA00000F06EFB00283FF42DAE06F1FF3C65459A
:104BB000BFF4FFAD6A1E08F1FF3328445A440135A3
:104BC00013F8011F02F8011F85423FF41BAE654533
:104BD000F5D3EEE5731EAB427FF6EBAD0A230BF87F
:104BE000053001350EE6544BD3F8E480404600F022
:104BF00047FB7AE73B6A002B80F2BC814FF000094B
:104C0000CDF81090D7F814C0BCF145034FEAEC780A
:104C100068F10008B8F1000FA6EB05010BEB0500E9
:104C200002DA033348F100080CF22B1203923F4AD8
:104C30000CF1FF3E82FB0E2A9B084FEAEE7E43EA10
:104C40008873CEEB6A1EB3EB0E0A384A039B4FEA19
:104C5000A80868EBEE7E82FB0328DA17C2EBE812A5
:104C60001AEB02034EEBE272ACF1460C40F26D1E01
:104C70000EFB0CFE13EB0E0C42EBEE73FA691CEB11
:104C8000020C43EBE2731CEB0C0243EB030E12EB42
:104C90000C0243EB0E03D7F808C0DB0043EA527363
:104CA000D20012EB0C0E43EBEC731A014FEA0E1C10
:104CB000BCEB0E0C42EA1E7262EB03039A0042EA5E
:104CC0009C724FEA8C03D7F804C013EB0C0E42EB36
:104CD000EC7C4FEA0C124FEA0E13B3EB0E0342EAE0
:104CE0001E7262EB0C029200D7F800C042EA937287
:104CF0009B0013EB0C0342EBEC72B3EB090C049B2F
:104D000062EB0302CDE900C20C4A08F015FD002851
:104D1000BFF675AD4DE5731EAB427FF64AAD092374
:104D20000BF8053001356DE594F8FFFF1F85EB5159
:104D30002C57040860570408440F04086C570408F3
:104D4000731EAB427FF635ADBB69002B40F0E680A9
:104D500037230BF80530013554E5BA69002A00F015
:104D6000F980013AFB6907339A1AC14B83FB02139E
:104D70001344D217C2EBA30399E6BE4BD3F8988035
:104D8000404600F07DFAB0E67B69BB4A934280F270
:104D9000E380D31A2D228DF81820B9F1000F40F0CE
:104DA000D6800DF119000DF1180A25220270B8F114
:104DB000000F7FF46CAE0130B049039308F000FDA2
:104DC000039B009352464B4677E63B6A002BFFF667
:104DD0001DAD03F02FFF029B002B00F023823B6AE6
:104DE000A74A002BD4BF0023012352F8238040465A
:104DF00000F046FA002800F0228206F1FF3CAC45A4
:104E000040F2FB816A1E08F1FF335A4400EB0508AB
:104E100002E0654580F0F181013513F8011F02F8C9
:104E2000011F4545F5D103F007FF454657E0914B7B
:104E3000D3F89C80404600F023FA56E678690028B3
:104E4000C0F26B818F4B83FB0032C317C3EB62133D
:104E5000642202FB13032AE63B6A002BFFF6D6AC62
:104E600003F0E8FE029B002B00F0FE8007F098FBA9
:104E70003B6ADFF838A2002BD4BF002301230133A3
:104E800003EB830350F83330C3F1000803F0D4FE82
:104E90008AFB08304FEAE8794044C9EB601007F01C
:104EA000D5FB8AFB00230344C217C2EB6312764B87
:104EB000C2EB0212A0EB820083FB08234344009064
:104EC000724AC9EBE3230BEB0500711B08F034FCBD
:104ED0000028FFF66EAC0544AE427FF66AAC0123B3
:104EE00002938FE43B686A4A82E43B6801937B68E3
:104EF0000093BB68674A711B0BEB050008F01CFCB4
:104F00000028BFF67CAC54E4FA69BB690732D21AB8
:104F10002BE7731EAB427FF64CACBB6930330BF80A
:104F2000053001356EE4B9F1060F38BF4FF00609C0
:104F3000B9F106038DF819807FF42EAD0DF11A0832
:104F40004046554908F03CFC3B4606AAD4E509F129
:104F5000FF3926E7062205E7B8F12B0F03F26C7341
:104F600000F024810DF1180A50461EE70C2366E478
:104F7000062298E503F05EFE029B002B71D007F03D
:104F80000FFB3B6A002BD4BF00230123013303EB4B
:104F9000830350F83330C3F1000903F04DFE0123C1
:104FA00002934FEAE97304932CE63C487A69824203
:104FB00054DB8C44BCF1FF3F7FF44DAD013B4FF01F
:104FC000630C48E5FB693FD079690029A2EB030334
:104FD00040F26B72A8BF6FF0640211448A0740F080
:104FE000F7802F482F4ADFF8C8C002FB0100BCEB56
:104FF000B00F80F0ED8001229B1A052BB4BF352342
:10500000342354E5B9F1020FDFF8A8E0264B38BF8E
:105010004FF002090BEB0500711B039AA9EB020983
:10502000CDE9009C724608F087FB0028BFF6E7AB8D
:10503000FFF7BFBB0CF1FF32BCF1000F00F0EC80BA
:10504000642101FB0323A5E60A339B1A084A82FB6D
:1050500003121A44DB17C3EBA20328E501210391D5
:10506000EEE403F0EBFD8AE703F0E8FDFEE600BFA7
:1050700093244992440F040894F8FFFF54570408FE
:10508000B40900241F85EB51C5B3A29184570408CD
:105090002C570408745704084C57040895F8FFFF70
:1050A00050B81E05295C8FC2343B04088988888863
:1050B000285C8F021C570408B9F1020FDFF89CE14D
:1050C000604B38BF4FF002090BEB0500711BA4E7E2
:1050D00004900AF26C7005F027FB5B4B7A69049927
:1050E00083FB003C002A4FEAE073C3EB6C13BFF66E
:1050F00094AC02F26C70CDE9043105F015FB524B13
:105100004FEAE07C83FB003ECCEB6E1C4FF0640E5C
:10511000DDE904310EFB1C0C87E400F26C7005F035
:1051200003FB8FE600F26C70CDE9031305F0FCFA87
:10513000454BC21783FB003CC2EB6C124FF0640C72
:10514000DDE903130CFB120211E40AF26C7005F0A6
:10515000EBFA3D4B83FB003CC317C3EB6C1CB8F16F
:10516000000F40D042F20F7398423FF7D3AB354B5C
:10517000DFF8E8E0FFF7D6BB00F26C7005F0D4FA78
:10518000314B83FB0023C217C2EB6312B8F1000F4F
:105190004FF0640303FB120247DA7969A3F2CF737D
:1051A0009942B8BF4FF00108FFF77CBB42F20F7283
:1051B00093422AD98DF81880B9F1000F7FF4C7AE59
:1051C00025228DF819200DF119000DF1180A5EE461
:1051D0001E4A1F4800FB01211E4AB2EB311F2CBFA3
:1051E0000122002208E7174BDFF874E0FFF79ABBB3
:1051F000BCF1FF3F7FF42FACE0E603F01DFDFFF7AD
:10520000D8BA0DF1180A50463FE425220DF1180ACC
:105210008DF8182050463AE4013B642202FB03F368
:105220006333B7E503F00AFDD9E53FF43BAB0A4B26
:1052300079699942B8BF4FF0FF38FFF733BBA846F2
:10524000F1E500BF343B04081F85EB5150B81E0543
:10525000295C8FC20AD7A30094F8FFFF14570408F3
:105260001C570408FFF7D6B9FFF7D4B900000000B7
:10527000000000000000000000000000000000002E
:1052800090F800F06DE9024520F007016FF0000C86
:1052900010F0070491F820F040F049804FF000042E
:1052A0006FF00700D1E9002391F840F000F1080009
:1052B00082FA4CF2A4FA8CF283FA4CF3A2FA8CF341
:1052C0004BBBD1E9022382FA4CF200F10800A4FAA8
:1052D0008CF283FA4CF3A2FA8CF3E3B9D1E90423FC
:1052E00082FA4CF200F10800A4FA8CF283FA4CF333
:1052F000A2FA8CF37BB9D1E9062301F1200182FAED
:105300004CF200F10800A4FA8CF283FA4CF3A2FAF2
:105310008CF3002BC6D0002A04BF04301A4612BA00
:10532000B2FA82F2FDE8024500EBD2007047D1E903
:10533000002304F00305C4F100004FEAC50514F092
:10534000040F91F840F00CFA05F562EA05021CBF63
:1053500063EA050362464FF00004A9E7000000007D
:105360002DE9F04F1C462DED048B9D4B1B689FB023
:10537000002582461846884607921A950893FFF73B
:105380007FFF002183460020CDE90401CDF8648031
:105390004246174612F8013B2D2B2FD8DFE813F0B9
:1053A000A4002E002E002E002E002E002E002E0017
:1053B0002E00B400B400B400B400B4002E002E00DF
:1053C0002E002E002E002E002E002E002E002E006D
:1053D0002E002E002E002E002E002E002E002E005D
:1053E000B4002E002E002E002E002E002E002E00C7
:1053F0002E002E002E000E042E000404002209921E
:10540000302B00F0838000220C922F2B1C4640F2A0
:105410004D854FF0000938464E464D4612E00130AA
:10542000082D1990C8BF09EB89090478C6BF03EBA2
:105430004903A3F13009A2F130062F2C05F1010533
:10544000234674DD06EB8602392C03EB4202E6DDCF
:1054500008995A4608F012FA0346002835D1199ADD
:1054600011465A44199211F80B40002D40F0A985BD
:10547000302C40F06185C2F10101531801321992BC
:105480001478302CF9D0A4F13102082A00F24383B9
:10549000A4F1300E199C03F1010B002301252746CE
:1054A0000A9306EB86060EEB46060023621C199251
:1054B0006478A4F13001092900F2F18201338E46AB
:1054C000002940F0D284199CF0E70023652C0A954E
:1054D0009B469E4601D0452C36D1002D40F085805C
:1054E0000C9A1A4340F08080079B9FED3B8B13B1D1
:1054F000079BC3F80080B0EE480AF0EE680A1FB0C0
:10550000BDEC048BBDE8F08F199242E77B7803F085
:10551000DF03582B00F08D84013719973B78302B2F
:10552000FAD0002B00F0D38001220C926DE708998D
:105530005A4608F0A3F90346002800F0DB800A95DC
:105540004FF0000B5B46DE4600220D92002D00F06E
:1055500098800A9A1346002A08BF2B4630460A93C1
:10556000FBF734F80B460246CDE904230D9B102DC2
:10557000A3EB0B032C46A8BF1024092D0C9314DDBC
:10558000184B03EBC40353E912230CF00FFE024641
:10559000484690468946FBF719F802460B464046B6
:1055A0004946FAF7D7FECDE904010F2D00F3AB8091
:1055B0000C9B002B00F034840C9B40F38283162B51
:1055C00040F3F1840C9AC5F12503934280F20485DF
:1055D0000C9B2C1B1C449CE0000000000000000001
:1055E00040110408601104080025DDF8648008F10A
:1055F0000102199298F801402B2C00F089822D2C81
:1056000000F01D8200220892A4F13002092A00F263
:105610001182302C05D1199A013219921478302C4C
:10562000FAD0A4F13102082A8ED819990D914A1C9A
:105630001992A4F130004C782F2C09DC00F044BC06
:10564000013219929CF801402F2CA1F1300006DDA7
:1056500000EB8001392C944604EB4101F0DD0D99FB
:10566000521A082A40F3308444F61F620D92089AB9
:10567000002A3FF46BAF0D9A52420D92002D7FF439
:1056800068AF0C9A134322D1BEF1000F7FF42CAF08
:10569000692C00F0318400F35283492C00F02C84F3
:1056A0004E2C7FF421AFB84919A806F03FFE002820
:1056B0003FF41AAF199B1B78282B00F07185B34873
:1056C00007F04EFFB0EE408AF0EE608A01E09FEDF9
:1056D000AA8B079A0AB1199B1360099B002B3FF410
:1056E0000AAF18EE901A18EE102A01F1004343ECAD
:1056F000182B00E7199A0A9502EB0B01199112F881
:105700000B409B46D5E60C9B2C1B1C44002C40F305
:105710001B8314F00F000AD09D4901EBC001DDE9A5
:105720000423D1E900010CF041FDCDE9040134F07E
:105730000F0340F07082002308930A9A00962B46CC
:105740003946504607F03CF81190002800F06B8372
:105750000D9BABEB03000C9B002BB4BF0246002259
:105760004FF0000823EAE3730D921093C346119C97
:105770005046616806F0A0FF8146002800F047818E
:1057800022699DED048B0232920004F10C010C3071
:10579000FDF7D8FDB0EE480AF0EE680A1CAA1BA976
:1057A000504607F0C3FB1A90002800F01D8101212C
:1057B000504607F0AFF88346002800F028811B9B75
:1057C000002BC0F217810D9A109D9E18089A1C9C00
:1057D0009B1A23446F4A013B9342C4F1360480F282
:1057E000B080D21A1F2AA4EB020400F31C8101230B
:1057F00093400A930027089B25443444A6421D4445
:105800003346A8BF2346AB42A8BF2B46002B02DD80
:10581000E41AED1AF61A0D9B002B00F3C580002C3C
:1058200000F3D9800C9B002B00F3E880002D00F3DF
:10583000F080002E08DD59463246504607F0A6F9A2
:105840008346002800F0E3801A994A46504607F044
:1058500037FA8046002800F0DA800023C268C3606F
:1058600059460E9207F00AFA0028C0F2758400F03B
:10587000E5835946404607F0C1FB55EC104B10EE4E
:10588000100A00224FF080432946FAF783FF0028D0
:105890005BD00E9B002B00F0DD80059B0F933E4BF1
:1058A0003D4D0022CDE90A2300243C4F0F9A3C4B8A
:1058B00002EA07069E4200F0F880089B8BB1B6F121
:1058C000D46F0ED82EA3D3E9002320462946FAF739
:1058D00061FF002840F087810B9B03F1D6639B1B7F
:1058E0000B93DDE90A01B0EE480AF0EE680ACDE953
:1058F000040107F08BFADDE9040153EC102B0CF0E6
:1059000055FC53EC182BFAF725FDCDE904010A915B
:10591000089B2BB9214B0A9A13409E4200F0048148
:105920001A99504606F0EEFE4946504606F0EAFE49
:105930005946504606F0E6FE4146504606F0E2FE65
:1059400015E7012300270A9355E7164B2046294601
:1059500000220CF02BFC0E9B04460D46002B76D14A
:1059600001F1004312901393059B0F93DDE912237D
:10597000CDE90A2399E700BF000000000000000005
:105980000000C0FFFFFFDF419C570408343B0408C0
:105990006011040802FCFFFF0000F03F0000F07FF0
:1059A0000000E07F0000E03F59461A46504607F0ED
:1059B0008DF8834658B301461A9A504606F0D8FF30
:1059C00028B30E901A99504606F09CFE0E9B1A932F
:1059D000002C7FF727AF1A992246504607F0D6F8D9
:1059E0001A9000287FF41EAF22239FEDBF8BCAF8C8
:1059F0000030C4E0109A0D9ED51AE7E64946109A89
:105A0000504607F063F8814600287FF40FAF1A98DC
:105A1000EAE749462A46504607F0B8F8814600288A
:105A20007FF407AFF3E7B84FFF1A012303FA07F734
:105A30000A93E0E60022CDF864800D9286E501220B
:105A4000089208F10202199298F80240DCE5CDE9CB
:105A5000124589E7DDE90412002940F0B280C2F363
:105A600013030F92002B40F0B280A84B0022204677
:105A70002946FAF785FE002840F0A782A44B20466D
:105A8000294600220CF092FB01F1004304460D462A
:105A900016901793DDE91623CDE90A2305E7652C57
:105AA0004FF0010E3FF4A1AD15E5A2F1547305933B
:105AB0009DED047BDDE90A01B0EE470AF0EE670ACE
:105AC000B0EE479AF0EE679ACDE9040107F09EF92F
:105AD000DDE9040153EC102B0CF068FB53EC192B9F
:105AE000FAF738FC8B4B0F409F42CDE9040175D982
